{"contracts/edunate.sol":{"Edunate":{"abi":[{"anonymous":false,"inputs":[{"indexed":false,"internalType":"uint256","name":"fundraiserId","type":"uint256"},{"indexed":false,"internalType":"address","name":"donor","type":"address"},{"indexed":false,"internalType":"uint256","name":"amount","type":"uint256"}],"name":"DonationReceived","type":"event"},{"anonymous":false,"inputs":[{"indexed":false,"internalType":"uint256","name":"id","type":"uint256"},{"indexed":false,"internalType":"address","name":"institution","type":"address"},{"indexed":false,"internalType":"string","name":"title","type":"string"}],"name":"FundraiserCreated","type":"event"},{"anonymous":false,"inputs":[{"indexed":false,"internalType":"uint256","name":"fundraiserId","type":"uint256"},{"indexed":false,"internalType":"uint256","name":"milestoneIndex","type":"uint256"},{"indexed":false,"internalType":"enum Edunate.MilestoneStatus","name":"status","type":"uint8"}],"name":"MilestoneValidated","type":"event"},{"anonymous":false,"inputs":[{"indexed":false,"internalType":"address","name":"user","type":"address"},{"indexed":false,"internalType":"enum Edunate.UserRole","name":"role","type":"uint8"}],"name":"UserRegistered","type":"event"},{"inputs":[{"internalType":"string","name":"_id","type":"string"},{"internalType":"string","name":"_title","type":"string"},{"internalType":"uint256","name":"_goalAmount","type":"uint256"},{"internalType":"string[]","name":"_milestoneDescriptions","type":"string[]"},{"internalType":"uint256[]","name":"_milestoneAmounts","type":"uint256[]"}],"name":"createFundraiser","outputs":[],"stateMutability":"nonpayable","type":"function"},{"inputs":[{"internalType":"string","name":"_id","type":"string"}],"name":"donate","outputs":[],"stateMutability":"payable","type":"function"},{"inputs":[{"internalType":"string","name":"_id","type":"string"}],"name":"fetchFundraiserById","outputs":[{"components":[{"internalType":"string","name":"id","type":"string"},{"internalType":"address","name":"institution","type":"address"},{"internalType":"string","name":"title","type":"string"},{"internalType":"uint256","name":"goalAmount","type":"uint256"},{"internalType":"uint256","name":"raisedAmount","type":"uint256"},{"components":[{"internalType":"string","name":"description","type":"string"},{"internalType":"uint256","name":"amount","type":"uint256"},{"internalType":"enum Edunate.MilestoneStatus","name":"status","type":"uint8"},{"internalType":"string","name":"proofHash","type":"string"}],"internalType":"struct Edunate.Milestone[]","name":"milestones","type":"tuple[]"},{"internalType":"bool","name":"isActive","type":"bool"}],"internalType":"struct Edunate.Fundraiser","name":"","type":"tuple"}],"stateMutability":"view","type":"function"},{"inputs":[],"name":"fundraiserCount","outputs":[{"internalType":"uint256","name":"","type":"uint256"}],"stateMutability":"view","type":"function"},{"inputs":[{"internalType":"uint256","name":"","type":"uint256"}],"name":"fundraisers","outputs":[{"internalType":"string","name":"id","type":"string"},{"internalType":"address","name":"institution","type":"address"},{"internalType":"string","name":"title","type":"string"},{"internalType":"uint256","name":"goalAmount","type":"uint256"},{"internalType":"uint256","name":"raisedAmount","type":"uint256"},{"internalType":"bool","name":"isActive","type":"bool"}],"stateMutability":"view","type":"function"},{"inputs":[{"internalType":"address","name":"_userAddress","type":"address"},{"internalType":"enum Edunate.UserRole","name":"_role","type":"uint8"},{"internalType":"string","name":"_name","type":"string"}],"name":"registerUser","outputs":[],"stateMutability":"nonpayable","type":"function"},{"inputs":[{"internalType":"address","name":"","type":"address"}],"name":"users","outputs":[{"internalType":"address","name":"userAddress","type":"address"},{"internalType":"enum Edunate.UserRole","name":"role","type":"uint8"},{"internalType":"string","name":"name","type":"string"}],"stateMutability":"view","type":"function"}],"evm":{"bytecode":{"linkReferences":{},"object":"6080604052348015600f57600080fd5b5061231f8061001f6000396000f3fe6080604052600436106100705760003560e01c8063af321a771161004e578063af321a771461011c578063b5aebc8014610145578063be13366314610161578063f38f72fb1461018a57610070565b806337cd094014610075578063683c3949146100a0578063a87430ba146100dd575b600080fd5b34801561008157600080fd5b5061008a6101cc565b6040516100979190611064565b60405180910390f35b3480156100ac57600080fd5b506100c760048036038101906100c291906111d9565b6101d2565b6040516100d49190611559565b60405180910390f35b3480156100e957600080fd5b5061010460048036038101906100ff91906115a7565b610637565b60405161011393929190611675565b60405180910390f35b34801561012857600080fd5b50610143600480360381019061013e9190611888565b610716565b005b61015f600480360381019061015a91906111d9565b610abc565b005b34801561016d57600080fd5b5061018860048036038101906101839190611998565b610c5e565b005b34801561019657600080fd5b506101b160048036038101906101ac9190611a07565b610e7d565b6040516101c396959493929190611a43565b60405180910390f35b60025481565b6101da610ff6565b60006003836040516101ec9190611aee565b90815260200160405180910390205490508260405160200161020e9190611aee565b604051602081830303815290604052805190602001206001600080815260200190815260200160002060000160405160200161024a9190611bfd565b60405160208183030381529060405280519060200120146102a0576040517f08c379a000000000000000000000000000000000000000000000000000000000815260040161029790611c60565b60405180910390fd5b600160008281526020019081526020016000206040518060e00160405290816000820180546102ce90611b34565b80601f01602080910402602001604051908101604052809291908181526020018280546102fa90611b34565b80156103475780601f1061031c57610100808354040283529160200191610347565b820191906000526020600020905b81548152906001019060200180831161032a57829003601f168201915b505050505081526020016001820160009054906101000a900473ffffffffffffffffffffffffffffffffffffffff1673ffffffffffffffffffffffffffffffffffffffff1673ffffffffffffffffffffffffffffffffffffffff1681526020016002820180546103b690611b34565b80601f01602080910402602001604051908101604052809291908181526020018280546103e290611b34565b801561042f5780601f106104045761010080835404028352916020019161042f565b820191906000526020600020905b81548152906001019060200180831161041257829003601f168201915b50505050508152602001600382015481526020016004820154815260200160058201805480602002602001604051908101604052809291908181526020016000905b8282101561060c57838290600052602060002090600402016040518060800160405290816000820180546104a490611b34565b80601f01602080910402602001604051908101604052809291908181526020018280546104d090611b34565b801561051d5780601f106104f25761010080835404028352916020019161051d565b820191906000526020600020905b81548152906001019060200180831161050057829003601f168201915b50505050508152602001600182015481526020016002820160009054906101000a900460ff1660028111156105555761055461131d565b5b60028111156105675761056661131d565b5b815260200160038201805461057b90611b34565b80601f01602080910402602001604051908101604052809291908181526020018280546105a790611b34565b80156105f45780601f106105c9576101008083540402835291602001916105f4565b820191906000526020600020905b8154815290600101906020018083116105d757829003601f168201915b50505050508152505081526020019060010190610471565b5050505081526020016006820160009054906101000a900460ff161515151581525050915050919050565b60006020528060005260406000206000915090508060000160009054906101000a900473ffffffffffffffffffffffffffffffffffffffff16908060000160149054906101000a900460ff169080600101805461069390611b34565b80601f01602080910402602001604051908101604052809291908181526020018280546106bf90611b34565b801561070c5780601f106106e15761010080835404028352916020019161070c565b820191906000526020600020905b8154815290600101906020018083116106ef57829003601f168201915b5050505050905083565b6002600381111561072a5761072961131d565b5b6000803373ffffffffffffffffffffffffffffffffffffffff1673ffffffffffffffffffffffffffffffffffffffff16815260200190815260200160002060000160149054906101000a900460ff16600381111561078b5761078a61131d565b5b146107cb576040517f08c379a00000000000000000000000000000000000000000000000000000000081526004016107c290611ccc565b60405180910390fd5b805182511461080f576040517f08c379a000000000000000000000000000000000000000000000000000000000815260040161080690611d38565b60405180910390fd5b60006003866040516108219190611aee565b90815260200160405180910390205414610870576040517f08c379a000000000000000000000000000000000000000000000000000000000815260040161086790611da4565b60405180910390fd5b60006002600081548092919061088590611df3565b9190505590506000600160008381526020019081526020016000209050868160000190816108b39190611fd2565b50338160010160006101000a81548173ffffffffffffffffffffffffffffffffffffffff021916908373ffffffffffffffffffffffffffffffffffffffff160217905550858160020190816109089190611fd2565b5084816003018190555060018160060160006101000a81548160ff021916908315150217905550816003886040516109409190611aee565b90815260200160405180910390208190555060005b8451811015610a77578160050160405180608001604052808784815181106109805761097f6120a4565b5b602002602001015181526020018684815181106109a05761099f6120a4565b5b60200260200101518152602001600060028111156109c1576109c061131d565b5b81526020016040518060200160405280600081525081525090806001815401808255809150506001900390600052602060002090600402016000909190919091506000820151816000019081610a179190611fd2565b506020820151816001015560408201518160020160006101000a81548160ff02191690836002811115610a4d57610a4c61131d565b5b02179055506060820151816003019081610a679190611fd2565b5050508080600101915050610955565b507fbfba4bf8fd78312c37bccacb8f7e01081365e7bf5ea2b2c61ea924a3ac425d6e823388604051610aab939291906120d3565b60405180910390a150505050505050565b6000600382604051610ace9190611aee565b90815260200160405180910390205490506000811180610b5c57506000600254118015610b5b575081604051602001610b079190611aee565b6040516020818303038152906040528051906020012060016000808152602001908152602001600020600001604051602001610b439190611bfd565b60405160208183030381529060405280519060200120145b5b610b9b576040517f08c379a0000000000000000000000000000000000000000000000000000000008152600401610b929061215d565b60405180910390fd5b60006001600083815260200190815260200160002090508060060160009054906101000a900460ff16610c03576040517f08c379a0000000000000000000000000000000000000000000000000000000008152600401610bfa906121c9565b60405180910390fd5b34816004016000828254610c1791906121e9565b925050819055507f0b5b4c52969ff7329ecf7ee536409fda87812b15a8622bc6e8cdeab3aee14a26823334604051610c519392919061221d565b60405180910390a1505050565b600073ffffffffffffffffffffffffffffffffffffffff166000808573ffffffffffffffffffffffffffffffffffffffff1673ffffffffffffffffffffffffffffffffffffffff16815260200190815260200160002060000160009054906101000a900473ffffffffffffffffffffffffffffffffffffffff1673ffffffffffffffffffffffffffffffffffffffff1614610d2e576040517f08c379a0000000000000000000000000000000000000000000000000000000008152600401610d25906122a0565b60405180910390fd5b60405180606001604052808473ffffffffffffffffffffffffffffffffffffffff168152602001836003811115610d6857610d6761131d565b5b8152602001828152506000808573ffffffffffffffffffffffffffffffffffffffff1673ffffffffffffffffffffffffffffffffffffffff16815260200190815260200160002060008201518160000160006101000a81548173ffffffffffffffffffffffffffffffffffffffff021916908373ffffffffffffffffffffffffffffffffffffffff16021790555060208201518160000160146101000a81548160ff02191690836003811115610e2157610e2061131d565b5b02179055506040820151816001019081610e3b9190611fd2565b509050507f8e18574f8a7333e6a87112742a55853a643e2f0550f4e1a3a2c3f1bb2994441d8383604051610e709291906122c0565b60405180910390a1505050565b6001602052806000526040600020600091509050806000018054610ea090611b34565b80601f0160208091040260200160405190810160405280929190818152602001828054610ecc90611b34565b8015610f195780601f10610eee57610100808354040283529160200191610f19565b820191906000526020600020905b815481529060010190602001808311610efc57829003601f168201915b5050505050908060010160009054906101000a900473ffffffffffffffffffffffffffffffffffffffff1690806002018054610f5490611b34565b80601f0160208091040260200160405190810160405280929190818152602001828054610f8090611b34565b8015610fcd5780601f10610fa257610100808354040283529160200191610fcd565b820191906000526020600020905b815481529060010190602001808311610fb057829003601f168201915b5050505050908060030154908060040154908060060160009054906101000a900460ff16905086565b6040518060e0016040528060608152602001600073ffffffffffffffffffffffffffffffffffffffff168152602001606081526020016000815260200160008152602001606081526020016000151581525090565b6000819050919050565b61105e8161104b565b82525050565b60006020820190506110796000830184611055565b92915050565b6000604051905090565b600080fd5b600080fd5b600080fd5b600080fd5b6000601f19601f8301169050919050565b7f4e487b7100000000000000000000000000000000000000000000000000000000600052604160045260246000fd5b6110e68261109d565b810181811067ffffffffffffffff82111715611105576111046110ae565b5b80604052505050565b600061111861107f565b905061112482826110dd565b919050565b600067ffffffffffffffff821115611144576111436110ae565b5b61114d8261109d565b9050602081019050919050565b82818337600083830152505050565b600061117c61117784611129565b61110e565b90508281526020810184848401111561119857611197611098565b5b6111a384828561115a565b509392505050565b600082601f8301126111c0576111bf611093565b5b81356111d0848260208601611169565b91505092915050565b6000602082840312156111ef576111ee611089565b5b600082013567ffffffffffffffff81111561120d5761120c61108e565b5b611219848285016111ab565b91505092915050565b600081519050919050565b600082825260208201905092915050565b60005b8381101561125c578082015181840152602081019050611241565b60008484015250505050565b600061127382611222565b61127d818561122d565b935061128d81856020860161123e565b6112968161109d565b840191505092915050565b600073ffffffffffffffffffffffffffffffffffffffff82169050919050565b60006112cc826112a1565b9050919050565b6112dc816112c1565b82525050565b6112eb8161104b565b82525050565b600081519050919050565b600082825260208201905092915050565b6000819050602082019050919050565b7f4e487b7100000000000000000000000000000000000000000000000000000000600052602160045260246000fd5b6003811061135d5761135c61131d565b5b50565b600081905061136e8261134c565b919050565b600061137e82611360565b9050919050565b61138e81611373565b82525050565b600060808301600083015184820360008601526113b18282611268565b91505060208301516113c660208601826112e2565b5060408301516113d96040860182611385565b50606083015184820360608601526113f18282611268565b9150508091505092915050565b600061140a8383611394565b905092915050565b6000602082019050919050565b600061142a826112f1565b61143481856112fc565b9350836020820285016114468561130d565b8060005b85811015611482578484038952815161146385826113fe565b945061146e83611412565b925060208a0199505060018101905061144a565b50829750879550505050505092915050565b60008115159050919050565b6114a981611494565b82525050565b600060e08301600083015184820360008601526114cc8282611268565b91505060208301516114e160208601826112d3565b50604083015184820360408601526114f98282611268565b915050606083015161150e60608601826112e2565b50608083015161152160808601826112e2565b5060a083015184820360a0860152611539828261141f565b91505060c083015161154e60c08601826114a0565b508091505092915050565b6000602082019050818103600083015261157381846114af565b905092915050565b611584816112c1565b811461158f57600080fd5b50565b6000813590506115a18161157b565b92915050565b6000602082840312156115bd576115bc611089565b5b60006115cb84828501611592565b91505092915050565b6115dd816112c1565b82525050565b600481106115f4576115f361131d565b5b50565b6000819050611605826115e3565b919050565b6000611615826115f7565b9050919050565b6116258161160a565b82525050565b600082825260208201905092915050565b600061164782611222565b611651818561162b565b935061166181856020860161123e565b61166a8161109d565b840191505092915050565b600060608201905061168a60008301866115d4565b611697602083018561161c565b81810360408301526116a9818461163c565b9050949350505050565b6116bc8161104b565b81146116c757600080fd5b50565b6000813590506116d9816116b3565b92915050565b600067ffffffffffffffff8211156116fa576116f96110ae565b5b602082029050602081019050919050565b600080fd5b600061172361171e846116df565b61110e565b905080838252602082019050602084028301858111156117465761174561170b565b5b835b8181101561178d57803567ffffffffffffffff81111561176b5761176a611093565b5b80860161177889826111ab565b85526020850194505050602081019050611748565b5050509392505050565b600082601f8301126117ac576117ab611093565b5b81356117bc848260208601611710565b91505092915050565b600067ffffffffffffffff8211156117e0576117df6110ae565b5b602082029050602081019050919050565b60006118046117ff846117c5565b61110e565b905080838252602082019050602084028301858111156118275761182661170b565b5b835b81811015611850578061183c88826116ca565b845260208401935050602081019050611829565b5050509392505050565b600082601f83011261186f5761186e611093565b5b813561187f8482602086016117f1565b91505092915050565b600080600080600060a086880312156118a4576118a3611089565b5b600086013567ffffffffffffffff8111156118c2576118c161108e565b5b6118ce888289016111ab565b955050602086013567ffffffffffffffff8111156118ef576118ee61108e565b5b6118fb888289016111ab565b945050604061190c888289016116ca565b935050606086013567ffffffffffffffff81111561192d5761192c61108e565b5b61193988828901611797565b925050608086013567ffffffffffffffff81111561195a5761195961108e565b5b6119668882890161185a565b9150509295509295909350565b6004811061198057600080fd5b50565b60008135905061199281611973565b92915050565b6000806000606084860312156119b1576119b0611089565b5b60006119bf86828701611592565b93505060206119d086828701611983565b925050604084013567ffffffffffffffff8111156119f1576119f061108e565b5b6119fd868287016111ab565b9150509250925092565b600060208284031215611a1d57611a1c611089565b5b6000611a2b848285016116ca565b91505092915050565b611a3d81611494565b82525050565b600060c0820190508181036000830152611a5d818961163c565b9050611a6c60208301886115d4565b8181036040830152611a7e818761163c565b9050611a8d6060830186611055565b611a9a6080830185611055565b611aa760a0830184611a34565b979650505050505050565b600081905092915050565b6000611ac882611222565b611ad28185611ab2565b9350611ae281856020860161123e565b80840191505092915050565b6000611afa8284611abd565b915081905092915050565b7f4e487b7100000000000000000000000000000000000000000000000000000000600052602260045260246000fd5b60006002820490506001821680611b4c57607f821691505b602082108103611b5f57611b5e611b05565b5b50919050565b60008190508160005260206000209050919050565b60008154611b8781611b34565b611b918186611ab2565b94506001821660008114611bac5760018114611bc157611bf4565b60ff1983168652811515820286019350611bf4565b611bca85611b65565b60005b83811015611bec57815481890152600182019150602081019050611bcd565b838801955050505b50505092915050565b6000611c098284611b7a565b915081905092915050565b7f46756e64726169736572204944206d69736d6174636800000000000000000000600082015250565b6000611c4a60168361162b565b9150611c5582611c14565b602082019050919050565b60006020820190508181036000830152611c7981611c3d565b9050919050565b7f4e6f7420616e20696e737469747574696f6e0000000000000000000000000000600082015250565b6000611cb660128361162b565b9150611cc182611c80565b602082019050919050565b60006020820190508181036000830152611ce581611ca9565b9050919050565b7f4d69736d6174636820696e206d696c6573746f6e657320646174610000000000600082015250565b6000611d22601b8361162b565b9150611d2d82611cec565b602082019050919050565b60006020820190508181036000830152611d5181611d15565b9050919050565b7f46756e6472616973657220494420616c72656164792065786973747300000000600082015250565b6000611d8e601c8361162b565b9150611d9982611d58565b602082019050919050565b60006020820190508181036000830152611dbd81611d81565b9050919050565b7f4e487b7100000000000000000000000000000000000000000000000000000000600052601160045260246000fd5b6000611dfe8261104b565b91507fffffffffffffffffffffffffffffffffffffffffffffffffffffffffffffffff8203611e3057611e2f611dc4565b5b600182019050919050565b60006020601f8301049050919050565b600082821b905092915050565b600060088302611e887fffffffffffffffffffffffffffffffffffffffffffffffffffffffffffffffff82611e4b565b611e928683611e4b565b95508019841693508086168417925050509392505050565b6000819050919050565b6000611ecf611eca611ec58461104b565b611eaa565b61104b565b9050919050565b6000819050919050565b611ee983611eb4565b611efd611ef582611ed6565b848454611e58565b825550505050565b600090565b611f12611f05565b611f1d818484611ee0565b505050565b5b81811015611f4157611f36600082611f0a565b600181019050611f23565b5050565b601f821115611f8657611f5781611b65565b611f6084611e3b565b81016020851015611f6f578190505b611f83611f7b85611e3b565b830182611f22565b50505b505050565b600082821c905092915050565b6000611fa960001984600802611f8b565b1980831691505092915050565b6000611fc28383611f98565b9150826002028217905092915050565b611fdb82611222565b67ffffffffffffffff811115611ff457611ff36110ae565b5b611ffe8254611b34565b612009828285611f45565b600060209050601f83116001811461203c576000841561202a578287015190505b6120348582611fb6565b86555061209c565b601f19841661204a86611b65565b60005b828110156120725784890151825560018201915060208501945060208101905061204d565b8683101561208f578489015161208b601f891682611f98565b8355505b6001600288020188555050505b505050505050565b7f4e487b7100000000000000000000000000000000000000000000000000000000600052603260045260246000fd5b60006060820190506120e86000830186611055565b6120f560208301856115d4565b8181036040830152612107818461163c565b9050949350505050565b7f46756e64726169736572206e6f7420666f756e64000000000000000000000000600082015250565b600061214760148361162b565b915061215282612111565b602082019050919050565b600060208201905081810360008301526121768161213a565b9050919050565b7f46756e64726169736572206973206e6f74206163746976650000000000000000600082015250565b60006121b360188361162b565b91506121be8261217d565b602082019050919050565b600060208201905081810360008301526121e2816121a6565b9050919050565b60006121f48261104b565b91506121ff8361104b565b925082820190508082111561221757612216611dc4565b5b92915050565b60006060820190506122326000830186611055565b61223f60208301856115d4565b61224c6040830184611055565b949350505050565b7f5573657220616c72656164792065786973747300000000000000000000000000600082015250565b600061228a60138361162b565b915061229582612254565b602082019050919050565b600060208201905081810360008301526122b98161227d565b9050919050565b60006040820190506122d560008301856115d4565b6122e2602083018461161c565b939250505056fea264697066735822122089fe099bba007a761e7132173908aa00ebe5a75c6d5ac23ab7f02669d22a41c964736f6c634300081c0033","opcodes":"PUSH1 0x80 PUSH1 0x40 MSTORE CALLVALUE DUP1 ISZERO PUSH1 0xF JUMPI PUSH1 0x0 DUP1 REVERT JUMPDEST POP PUSH2 0x231F DUP1 PUSH2 0x1F PUSH1 0x0 CODECOPY PUSH1 0x0 RETURN INVALID PUSH1 0x80 PUSH1 0x40 MSTORE PUSH1 0x4 CALLDATASIZE LT PUSH2 0x70 JUMPI PUSH1 0x0 CALLDATALOAD PUSH1 0xE0 SHR DUP1 PUSH4 0xAF321A77 GT PUSH2 0x4E JUMPI DUP1 PUSH4 0xAF321A77 EQ PUSH2 0x11C JUMPI DUP1 PUSH4 0xB5AEBC80 EQ PUSH2 0x145 JUMPI DUP1 PUSH4 0xBE133663 EQ PUSH2 0x161 JUMPI DUP1 PUSH4 0xF38F72FB EQ PUSH2 0x18A JUMPI PUSH2 0x70 JUMP JUMPDEST DUP1 PUSH4 0x37CD0940 EQ PUSH2 0x75 JUMPI DUP1 PUSH4 0x683C3949 EQ PUSH2 0xA0 JUMPI DUP1 PUSH4 0xA87430BA EQ PUSH2 0xDD JUMPI JUMPDEST PUSH1 0x0 DUP1 REVERT JUMPDEST CALLVALUE DUP1 ISZERO PUSH2 0x81 JUMPI PUSH1 0x0 DUP1 REVERT JUMPDEST POP PUSH2 0x8A PUSH2 0x1CC JUMP JUMPDEST PUSH1 0x40 MLOAD PUSH2 0x97 SWAP2 SWAP1 PUSH2 0x1064 JUMP JUMPDEST PUSH1 0x40 MLOAD DUP1 SWAP2 SUB SWAP1 RETURN JUMPDEST CALLVALUE DUP1 ISZERO PUSH2 0xAC JUMPI PUSH1 0x0 DUP1 REVERT JUMPDEST POP PUSH2 0xC7 PUSH1 0x4 DUP1 CALLDATASIZE SUB DUP2 ADD SWAP1 PUSH2 0xC2 SWAP2 SWAP1 PUSH2 0x11D9 JUMP JUMPDEST PUSH2 0x1D2 JUMP JUMPDEST PUSH1 0x40 MLOAD PUSH2 0xD4 SWAP2 SWAP1 PUSH2 0x1559 JUMP JUMPDEST PUSH1 0x40 MLOAD DUP1 SWAP2 SUB SWAP1 RETURN JUMPDEST CALLVALUE DUP1 ISZERO PUSH2 0xE9 JUMPI PUSH1 0x0 DUP1 REVERT JUMPDEST POP PUSH2 0x104 PUSH1 0x4 DUP1 CALLDATASIZE SUB DUP2 ADD SWAP1 PUSH2 0xFF SWAP2 SWAP1 PUSH2 0x15A7 JUMP JUMPDEST PUSH2 0x637 JUMP JUMPDEST PUSH1 0x40 MLOAD PUSH2 0x113 SWAP4 SWAP3 SWAP2 SWAP1 PUSH2 0x1675 JUMP JUMPDEST PUSH1 0x40 MLOAD DUP1 SWAP2 SUB SWAP1 RETURN JUMPDEST CALLVALUE DUP1 ISZERO PUSH2 0x128 JUMPI PUSH1 0x0 DUP1 REVERT JUMPDEST POP PUSH2 0x143 PUSH1 0x4 DUP1 CALLDATASIZE SUB DUP2 ADD SWAP1 PUSH2 0x13E SWAP2 SWAP1 PUSH2 0x1888 JUMP JUMPDEST PUSH2 0x716 JUMP JUMPDEST STOP JUMPDEST PUSH2 0x15F PUSH1 0x4 DUP1 CALLDATASIZE SUB DUP2 ADD SWAP1 PUSH2 0x15A SWAP2 SWAP1 PUSH2 0x11D9 JUMP JUMPDEST PUSH2 0xABC JUMP JUMPDEST STOP JUMPDEST CALLVALUE DUP1 ISZERO PUSH2 0x16D JUMPI PUSH1 0x0 DUP1 REVERT JUMPDEST POP PUSH2 0x188 PUSH1 0x4 DUP1 CALLDATASIZE SUB DUP2 ADD SWAP1 PUSH2 0x183 SWAP2 SWAP1 PUSH2 0x1998 JUMP JUMPDEST PUSH2 0xC5E JUMP JUMPDEST STOP JUMPDEST CALLVALUE DUP1 ISZERO PUSH2 0x196 JUMPI PUSH1 0x0 DUP1 REVERT JUMPDEST POP PUSH2 0x1B1 PUSH1 0x4 DUP1 CALLDATASIZE SUB DUP2 ADD SWAP1 PUSH2 0x1AC SWAP2 SWAP1 PUSH2 0x1A07 JUMP JUMPDEST PUSH2 0xE7D JUMP JUMPDEST PUSH1 0x40 MLOAD PUSH2 0x1C3 SWAP7 SWAP6 SWAP5 SWAP4 SWAP3 SWAP2 SWAP1 PUSH2 0x1A43 JUMP JUMPDEST PUSH1 0x40 MLOAD DUP1 SWAP2 SUB SWAP1 RETURN JUMPDEST PUSH1 0x2 SLOAD DUP2 JUMP JUMPDEST PUSH2 0x1DA PUSH2 0xFF6 JUMP JUMPDEST PUSH1 0x0 PUSH1 0x3 DUP4 PUSH1 0x40 MLOAD PUSH2 0x1EC SWAP2 SWAP1 PUSH2 0x1AEE JUMP JUMPDEST SWAP1 DUP2 MSTORE PUSH1 0x20 ADD PUSH1 0x40 MLOAD DUP1 SWAP2 SUB SWAP1 KECCAK256 SLOAD SWAP1 POP DUP3 PUSH1 0x40 MLOAD PUSH1 0x20 ADD PUSH2 0x20E SWAP2 SWAP1 PUSH2 0x1AEE JUMP JUMPDEST PUSH1 0x40 MLOAD PUSH1 0x20 DUP2 DUP4 SUB SUB DUP2 MSTORE SWAP1 PUSH1 0x40 MSTORE DUP1 MLOAD SWAP1 PUSH1 0x20 ADD KECCAK256 PUSH1 0x1 PUSH1 0x0 DUP1 DUP2 MSTORE PUSH1 0x20 ADD SWAP1 DUP2 MSTORE PUSH1 0x20 ADD PUSH1 0x0 KECCAK256 PUSH1 0x0 ADD PUSH1 0x40 MLOAD PUSH1 0x20 ADD PUSH2 0x24A SWAP2 SWAP1 PUSH2 0x1BFD JUMP JUMPDEST PUSH1 0x40 MLOAD PUSH1 0x20 DUP2 DUP4 SUB SUB DUP2 MSTORE SWAP1 PUSH1 0x40 MSTORE DUP1 MLOAD SWAP1 PUSH1 0x20 ADD KECCAK256 EQ PUSH2 0x2A0 JUMPI PUSH1 0x40 MLOAD PUSH32 0x8C379A000000000000000000000000000000000000000000000000000000000 DUP2 MSTORE PUSH1 0x4 ADD PUSH2 0x297 SWAP1 PUSH2 0x1C60 JUMP JUMPDEST PUSH1 0x40 MLOAD DUP1 SWAP2 SUB SWAP1 REVERT JUMPDEST PUSH1 0x1 PUSH1 0x0 DUP3 DUP2 MSTORE PUSH1 0x20 ADD SWAP1 DUP2 MSTORE PUSH1 0x20 ADD PUSH1 0x0 KECCAK256 PUSH1 0x40 MLOAD DUP1 PUSH1 0xE0 ADD PUSH1 0x40 MSTORE SWAP1 DUP2 PUSH1 0x0 DUP3 ADD DUP1 SLOAD PUSH2 0x2CE SWAP1 PUSH2 0x1B34 JUMP JUMPDEST DUP1 PUSH1 0x1F ADD PUSH1 0x20 DUP1 SWAP2 DIV MUL PUSH1 0x20 ADD PUSH1 0x40 MLOAD SWAP1 DUP2 ADD PUSH1 0x40 MSTORE DUP1 SWAP3 SWAP2 SWAP1 DUP2 DUP2 MSTORE PUSH1 0x20 ADD DUP3 DUP1 SLOAD PUSH2 0x2FA SWAP1 PUSH2 0x1B34 JUMP JUMPDEST DUP1 ISZERO PUSH2 0x347 JUMPI DUP1 PUSH1 0x1F LT PUSH2 0x31C JUMPI PUSH2 0x100 DUP1 DUP4 SLOAD DIV MUL DUP4 MSTORE SWAP2 PUSH1 0x20 ADD SWAP2 PUSH2 0x347 JUMP JUMPDEST DUP3 ADD SWAP2 SWAP1 PUSH1 0x0 MSTORE PUSH1 0x20 PUSH1 0x0 KECCAK256 SWAP1 JUMPDEST DUP2 SLOAD DUP2 MSTORE SWAP1 PUSH1 0x1 ADD SWAP1 PUSH1 0x20 ADD DUP1 DUP4 GT PUSH2 0x32A JUMPI DUP3 SWAP1 SUB PUSH1 0x1F AND DUP3 ADD SWAP2 JUMPDEST POP POP POP POP POP DUP2 MSTORE PUSH1 0x20 ADD PUSH1 0x1 DUP3 ADD PUSH1 0x0 SWAP1 SLOAD SWAP1 PUSH2 0x100 EXP SWAP1 DIV PUSH20 0xFFFFFFFFFFFFFFFFFFFFFFFFFFFFFFFFFFFFFFFF AND PUSH20 0xFFFFFFFFFFFFFFFFFFFFFFFFFFFFFFFFFFFFFFFF AND PUSH20 0xFFFFFFFFFFFFFFFFFFFFFFFFFFFFFFFFFFFFFFFF AND DUP2 MSTORE PUSH1 0x20 ADD PUSH1 0x2 DUP3 ADD DUP1 SLOAD PUSH2 0x3B6 SWAP1 PUSH2 0x1B34 JUMP JUMPDEST DUP1 PUSH1 0x1F ADD PUSH1 0x20 DUP1 SWAP2 DIV MUL PUSH1 0x20 ADD PUSH1 0x40 MLOAD SWAP1 DUP2 ADD PUSH1 0x40 MSTORE DUP1 SWAP3 SWAP2 SWAP1 DUP2 DUP2 MSTORE PUSH1 0x20 ADD DUP3 DUP1 SLOAD PUSH2 0x3E2 SWAP1 PUSH2 0x1B34 JUMP JUMPDEST DUP1 ISZERO PUSH2 0x42F JUMPI DUP1 PUSH1 0x1F LT PUSH2 0x404 JUMPI PUSH2 0x100 DUP1 DUP4 SLOAD DIV MUL DUP4 MSTORE SWAP2 PUSH1 0x20 ADD SWAP2 PUSH2 0x42F JUMP JUMPDEST DUP3 ADD SWAP2 SWAP1 PUSH1 0x0 MSTORE PUSH1 0x20 PUSH1 0x0 KECCAK256 SWAP1 JUMPDEST DUP2 SLOAD DUP2 MSTORE SWAP1 PUSH1 0x1 ADD SWAP1 PUSH1 0x20 ADD DUP1 DUP4 GT PUSH2 0x412 JUMPI DUP3 SWAP1 SUB PUSH1 0x1F AND DUP3 ADD SWAP2 JUMPDEST POP POP POP POP POP DUP2 MSTORE PUSH1 0x20 ADD PUSH1 0x3 DUP3 ADD SLOAD DUP2 MSTORE PUSH1 0x20 ADD PUSH1 0x4 DUP3 ADD SLOAD DUP2 MSTORE PUSH1 0x20 ADD PUSH1 0x5 DUP3 ADD DUP1 SLOAD DUP1 PUSH1 0x20 MUL PUSH1 0x20 ADD PUSH1 0x40 MLOAD SWAP1 DUP2 ADD PUSH1 0x40 MSTORE DUP1 SWAP3 SWAP2 SWAP1 DUP2 DUP2 MSTORE PUSH1 0x20 ADD PUSH1 0x0 SWAP1 JUMPDEST DUP3 DUP3 LT ISZERO PUSH2 0x60C JUMPI DUP4 DUP3 SWAP1 PUSH1 0x0 MSTORE PUSH1 0x20 PUSH1 0x0 KECCAK256 SWAP1 PUSH1 0x4 MUL ADD PUSH1 0x40 MLOAD DUP1 PUSH1 0x80 ADD PUSH1 0x40 MSTORE SWAP1 DUP2 PUSH1 0x0 DUP3 ADD DUP1 SLOAD PUSH2 0x4A4 SWAP1 PUSH2 0x1B34 JUMP JUMPDEST DUP1 PUSH1 0x1F ADD PUSH1 0x20 DUP1 SWAP2 DIV MUL PUSH1 0x20 ADD PUSH1 0x40 MLOAD SWAP1 DUP2 ADD PUSH1 0x40 MSTORE DUP1 SWAP3 SWAP2 SWAP1 DUP2 DUP2 MSTORE PUSH1 0x20 ADD DUP3 DUP1 SLOAD PUSH2 0x4D0 SWAP1 PUSH2 0x1B34 JUMP JUMPDEST DUP1 ISZERO PUSH2 0x51D JUMPI DUP1 PUSH1 0x1F LT PUSH2 0x4F2 JUMPI PUSH2 0x100 DUP1 DUP4 SLOAD DIV MUL DUP4 MSTORE SWAP2 PUSH1 0x20 ADD SWAP2 PUSH2 0x51D JUMP JUMPDEST DUP3 ADD SWAP2 SWAP1 PUSH1 0x0 MSTORE PUSH1 0x20 PUSH1 0x0 KECCAK256 SWAP1 JUMPDEST DUP2 SLOAD DUP2 MSTORE SWAP1 PUSH1 0x1 ADD SWAP1 PUSH1 0x20 ADD DUP1 DUP4 GT PUSH2 0x500 JUMPI DUP3 SWAP1 SUB PUSH1 0x1F AND DUP3 ADD SWAP2 JUMPDEST POP POP POP POP POP DUP2 MSTORE PUSH1 0x20 ADD PUSH1 0x1 DUP3 ADD SLOAD DUP2 MSTORE PUSH1 0x20 ADD PUSH1 0x2 DUP3 ADD PUSH1 0x0 SWAP1 SLOAD SWAP1 PUSH2 0x100 EXP SWAP1 DIV PUSH1 0xFF AND PUSH1 0x2 DUP2 GT ISZERO PUSH2 0x555 JUMPI PUSH2 0x554 PUSH2 0x131D JUMP JUMPDEST JUMPDEST PUSH1 0x2 DUP2 GT ISZERO PUSH2 0x567 JUMPI PUSH2 0x566 PUSH2 0x131D JUMP JUMPDEST JUMPDEST DUP2 MSTORE PUSH1 0x20 ADD PUSH1 0x3 DUP3 ADD DUP1 SLOAD PUSH2 0x57B SWAP1 PUSH2 0x1B34 JUMP JUMPDEST DUP1 PUSH1 0x1F ADD PUSH1 0x20 DUP1 SWAP2 DIV MUL PUSH1 0x20 ADD PUSH1 0x40 MLOAD SWAP1 DUP2 ADD PUSH1 0x40 MSTORE DUP1 SWAP3 SWAP2 SWAP1 DUP2 DUP2 MSTORE PUSH1 0x20 ADD DUP3 DUP1 SLOAD PUSH2 0x5A7 SWAP1 PUSH2 0x1B34 JUMP JUMPDEST DUP1 ISZERO PUSH2 0x5F4 JUMPI DUP1 PUSH1 0x1F LT PUSH2 0x5C9 JUMPI PUSH2 0x100 DUP1 DUP4 SLOAD DIV MUL DUP4 MSTORE SWAP2 PUSH1 0x20 ADD SWAP2 PUSH2 0x5F4 JUMP JUMPDEST DUP3 ADD SWAP2 SWAP1 PUSH1 0x0 MSTORE PUSH1 0x20 PUSH1 0x0 KECCAK256 SWAP1 JUMPDEST DUP2 SLOAD DUP2 MSTORE SWAP1 PUSH1 0x1 ADD SWAP1 PUSH1 0x20 ADD DUP1 DUP4 GT PUSH2 0x5D7 JUMPI DUP3 SWAP1 SUB PUSH1 0x1F AND DUP3 ADD SWAP2 JUMPDEST POP POP POP POP POP DUP2 MSTORE POP POP DUP2 MSTORE PUSH1 0x20 ADD SWAP1 PUSH1 0x1 ADD SWAP1 PUSH2 0x471 JUMP JUMPDEST POP POP POP POP DUP2 MSTORE PUSH1 0x20 ADD PUSH1 0x6 DUP3 ADD PUSH1 0x0 SWAP1 SLOAD SWAP1 PUSH2 0x100 EXP SWAP1 DIV PUSH1 0xFF AND ISZERO ISZERO ISZERO ISZERO DUP2 MSTORE POP POP SWAP2 POP POP SWAP2 SWAP1 POP JUMP JUMPDEST PUSH1 0x0 PUSH1 0x20 MSTORE DUP1 PUSH1 0x0 MSTORE PUSH1 0x40 PUSH1 0x0 KECCAK256 PUSH1 0x0 SWAP2 POP SWAP1 POP DUP1 PUSH1 0x0 ADD PUSH1 0x0 SWAP1 SLOAD SWAP1 PUSH2 0x100 EXP SWAP1 DIV PUSH20 0xFFFFFFFFFFFFFFFFFFFFFFFFFFFFFFFFFFFFFFFF AND SWAP1 DUP1 PUSH1 0x0 ADD PUSH1 0x14 SWAP1 SLOAD SWAP1 PUSH2 0x100 EXP SWAP1 DIV PUSH1 0xFF AND SWAP1 DUP1 PUSH1 0x1 ADD DUP1 SLOAD PUSH2 0x693 SWAP1 PUSH2 0x1B34 JUMP JUMPDEST DUP1 PUSH1 0x1F ADD PUSH1 0x20 DUP1 SWAP2 DIV MUL PUSH1 0x20 ADD PUSH1 0x40 MLOAD SWAP1 DUP2 ADD PUSH1 0x40 MSTORE DUP1 SWAP3 SWAP2 SWAP1 DUP2 DUP2 MSTORE PUSH1 0x20 ADD DUP3 DUP1 SLOAD PUSH2 0x6BF SWAP1 PUSH2 0x1B34 JUMP JUMPDEST DUP1 ISZERO PUSH2 0x70C JUMPI DUP1 PUSH1 0x1F LT PUSH2 0x6E1 JUMPI PUSH2 0x100 DUP1 DUP4 SLOAD DIV MUL DUP4 MSTORE SWAP2 PUSH1 0x20 ADD SWAP2 PUSH2 0x70C JUMP JUMPDEST DUP3 ADD SWAP2 SWAP1 PUSH1 0x0 MSTORE PUSH1 0x20 PUSH1 0x0 KECCAK256 SWAP1 JUMPDEST DUP2 SLOAD DUP2 MSTORE SWAP1 PUSH1 0x1 ADD SWAP1 PUSH1 0x20 ADD DUP1 DUP4 GT PUSH2 0x6EF JUMPI DUP3 SWAP1 SUB PUSH1 0x1F AND DUP3 ADD SWAP2 JUMPDEST POP POP POP POP POP SWAP1 POP DUP4 JUMP JUMPDEST PUSH1 0x2 PUSH1 0x3 DUP2 GT ISZERO PUSH2 0x72A JUMPI PUSH2 0x729 PUSH2 0x131D JUMP JUMPDEST JUMPDEST PUSH1 0x0 DUP1 CALLER PUSH20 0xFFFFFFFFFFFFFFFFFFFFFFFFFFFFFFFFFFFFFFFF AND PUSH20 0xFFFFFFFFFFFFFFFFFFFFFFFFFFFFFFFFFFFFFFFF AND DUP2 MSTORE PUSH1 0x20 ADD SWAP1 DUP2 MSTORE PUSH1 0x20 ADD PUSH1 0x0 KECCAK256 PUSH1 0x0 ADD PUSH1 0x14 SWAP1 SLOAD SWAP1 PUSH2 0x100 EXP SWAP1 DIV PUSH1 0xFF AND PUSH1 0x3 DUP2 GT ISZERO PUSH2 0x78B JUMPI PUSH2 0x78A PUSH2 0x131D JUMP JUMPDEST JUMPDEST EQ PUSH2 0x7CB JUMPI PUSH1 0x40 MLOAD PUSH32 0x8C379A000000000000000000000000000000000000000000000000000000000 DUP2 MSTORE PUSH1 0x4 ADD PUSH2 0x7C2 SWAP1 PUSH2 0x1CCC JUMP JUMPDEST PUSH1 0x40 MLOAD DUP1 SWAP2 SUB SWAP1 REVERT JUMPDEST DUP1 MLOAD DUP3 MLOAD EQ PUSH2 0x80F JUMPI PUSH1 0x40 MLOAD PUSH32 0x8C379A000000000000000000000000000000000000000000000000000000000 DUP2 MSTORE PUSH1 0x4 ADD PUSH2 0x806 SWAP1 PUSH2 0x1D38 JUMP JUMPDEST PUSH1 0x40 MLOAD DUP1 SWAP2 SUB SWAP1 REVERT JUMPDEST PUSH1 0x0 PUSH1 0x3 DUP7 PUSH1 0x40 MLOAD PUSH2 0x821 SWAP2 SWAP1 PUSH2 0x1AEE JUMP JUMPDEST SWAP1 DUP2 MSTORE PUSH1 0x20 ADD PUSH1 0x40 MLOAD DUP1 SWAP2 SUB SWAP1 KECCAK256 SLOAD EQ PUSH2 0x870 JUMPI PUSH1 0x40 MLOAD PUSH32 0x8C379A000000000000000000000000000000000000000000000000000000000 DUP2 MSTORE PUSH1 0x4 ADD PUSH2 0x867 SWAP1 PUSH2 0x1DA4 JUMP JUMPDEST PUSH1 0x40 MLOAD DUP1 SWAP2 SUB SWAP1 REVERT JUMPDEST PUSH1 0x0 PUSH1 0x2 PUSH1 0x0 DUP2 SLOAD DUP1 SWAP3 SWAP2 SWAP1 PUSH2 0x885 SWAP1 PUSH2 0x1DF3 JUMP JUMPDEST SWAP2 SWAP1 POP SSTORE SWAP1 POP PUSH1 0x0 PUSH1 0x1 PUSH1 0x0 DUP4 DUP2 MSTORE PUSH1 0x20 ADD SWAP1 DUP2 MSTORE PUSH1 0x20 ADD PUSH1 0x0 KECCAK256 SWAP1 POP DUP7 DUP2 PUSH1 0x0 ADD SWAP1 DUP2 PUSH2 0x8B3 SWAP2 SWAP1 PUSH2 0x1FD2 JUMP JUMPDEST POP CALLER DUP2 PUSH1 0x1 ADD PUSH1 0x0 PUSH2 0x100 EXP DUP2 SLOAD DUP2 PUSH20 0xFFFFFFFFFFFFFFFFFFFFFFFFFFFFFFFFFFFFFFFF MUL NOT AND SWAP1 DUP4 PUSH20 0xFFFFFFFFFFFFFFFFFFFFFFFFFFFFFFFFFFFFFFFF AND MUL OR SWAP1 SSTORE POP DUP6 DUP2 PUSH1 0x2 ADD SWAP1 DUP2 PUSH2 0x908 SWAP2 SWAP1 PUSH2 0x1FD2 JUMP JUMPDEST POP DUP5 DUP2 PUSH1 0x3 ADD DUP2 SWAP1 SSTORE POP PUSH1 0x1 DUP2 PUSH1 0x6 ADD PUSH1 0x0 PUSH2 0x100 EXP DUP2 SLOAD DUP2 PUSH1 0xFF MUL NOT AND SWAP1 DUP4 ISZERO ISZERO MUL OR SWAP1 SSTORE POP DUP2 PUSH1 0x3 DUP9 PUSH1 0x40 MLOAD PUSH2 0x940 SWAP2 SWAP1 PUSH2 0x1AEE JUMP JUMPDEST SWAP1 DUP2 MSTORE PUSH1 0x20 ADD PUSH1 0x40 MLOAD DUP1 SWAP2 SUB SWAP1 KECCAK256 DUP2 SWAP1 SSTORE POP PUSH1 0x0 JUMPDEST DUP5 MLOAD DUP2 LT ISZERO PUSH2 0xA77 JUMPI DUP2 PUSH1 0x5 ADD PUSH1 0x40 MLOAD DUP1 PUSH1 0x80 ADD PUSH1 0x40 MSTORE DUP1 DUP8 DUP5 DUP2 MLOAD DUP2 LT PUSH2 0x980 JUMPI PUSH2 0x97F PUSH2 0x20A4 JUMP JUMPDEST JUMPDEST PUSH1 0x20 MUL PUSH1 0x20 ADD ADD MLOAD DUP2 MSTORE PUSH1 0x20 ADD DUP7 DUP5 DUP2 MLOAD DUP2 LT PUSH2 0x9A0 JUMPI PUSH2 0x99F PUSH2 0x20A4 JUMP JUMPDEST JUMPDEST PUSH1 0x20 MUL PUSH1 0x20 ADD ADD MLOAD DUP2 MSTORE PUSH1 0x20 ADD PUSH1 0x0 PUSH1 0x2 DUP2 GT ISZERO PUSH2 0x9C1 JUMPI PUSH2 0x9C0 PUSH2 0x131D JUMP JUMPDEST JUMPDEST DUP2 MSTORE PUSH1 0x20 ADD PUSH1 0x40 MLOAD DUP1 PUSH1 0x20 ADD PUSH1 0x40 MSTORE DUP1 PUSH1 0x0 DUP2 MSTORE POP DUP2 MSTORE POP SWAP1 DUP1 PUSH1 0x1 DUP2 SLOAD ADD DUP1 DUP3 SSTORE DUP1 SWAP2 POP POP PUSH1 0x1 SWAP1 SUB SWAP1 PUSH1 0x0 MSTORE PUSH1 0x20 PUSH1 0x0 KECCAK256 SWAP1 PUSH1 0x4 MUL ADD PUSH1 0x0 SWAP1 SWAP2 SWAP1 SWAP2 SWAP1 SWAP2 POP PUSH1 0x0 DUP3 ADD MLOAD DUP2 PUSH1 0x0 ADD SWAP1 DUP2 PUSH2 0xA17 SWAP2 SWAP1 PUSH2 0x1FD2 JUMP JUMPDEST POP PUSH1 0x20 DUP3 ADD MLOAD DUP2 PUSH1 0x1 ADD SSTORE PUSH1 0x40 DUP3 ADD MLOAD DUP2 PUSH1 0x2 ADD PUSH1 0x0 PUSH2 0x100 EXP DUP2 SLOAD DUP2 PUSH1 0xFF MUL NOT AND SWAP1 DUP4 PUSH1 0x2 DUP2 GT ISZERO PUSH2 0xA4D JUMPI PUSH2 0xA4C PUSH2 0x131D JUMP JUMPDEST JUMPDEST MUL OR SWAP1 SSTORE POP PUSH1 0x60 DUP3 ADD MLOAD DUP2 PUSH1 0x3 ADD SWAP1 DUP2 PUSH2 0xA67 SWAP2 SWAP1 PUSH2 0x1FD2 JUMP JUMPDEST POP POP POP DUP1 DUP1 PUSH1 0x1 ADD SWAP2 POP POP PUSH2 0x955 JUMP JUMPDEST POP PUSH32 0xBFBA4BF8FD78312C37BCCACB8F7E01081365E7BF5EA2B2C61EA924A3AC425D6E DUP3 CALLER DUP9 PUSH1 0x40 MLOAD PUSH2 0xAAB SWAP4 SWAP3 SWAP2 SWAP1 PUSH2 0x20D3 JUMP JUMPDEST PUSH1 0x40 MLOAD DUP1 SWAP2 SUB SWAP1 LOG1 POP POP POP POP POP POP POP JUMP JUMPDEST PUSH1 0x0 PUSH1 0x3 DUP3 PUSH1 0x40 MLOAD PUSH2 0xACE SWAP2 SWAP1 PUSH2 0x1AEE JUMP JUMPDEST SWAP1 DUP2 MSTORE PUSH1 0x20 ADD PUSH1 0x40 MLOAD DUP1 SWAP2 SUB SWAP1 KECCAK256 SLOAD SWAP1 POP PUSH1 0x0 DUP2 GT DUP1 PUSH2 0xB5C JUMPI POP PUSH1 0x0 PUSH1 0x2 SLOAD GT DUP1 ISZERO PUSH2 0xB5B JUMPI POP DUP2 PUSH1 0x40 MLOAD PUSH1 0x20 ADD PUSH2 0xB07 SWAP2 SWAP1 PUSH2 0x1AEE JUMP JUMPDEST PUSH1 0x40 MLOAD PUSH1 0x20 DUP2 DUP4 SUB SUB DUP2 MSTORE SWAP1 PUSH1 0x40 MSTORE DUP1 MLOAD SWAP1 PUSH1 0x20 ADD KECCAK256 PUSH1 0x1 PUSH1 0x0 DUP1 DUP2 MSTORE PUSH1 0x20 ADD SWAP1 DUP2 MSTORE PUSH1 0x20 ADD PUSH1 0x0 KECCAK256 PUSH1 0x0 ADD PUSH1 0x40 MLOAD PUSH1 0x20 ADD PUSH2 0xB43 SWAP2 SWAP1 PUSH2 0x1BFD JUMP JUMPDEST PUSH1 0x40 MLOAD PUSH1 0x20 DUP2 DUP4 SUB SUB DUP2 MSTORE SWAP1 PUSH1 0x40 MSTORE DUP1 MLOAD SWAP1 PUSH1 0x20 ADD KECCAK256 EQ JUMPDEST JUMPDEST PUSH2 0xB9B JUMPI PUSH1 0x40 MLOAD PUSH32 0x8C379A000000000000000000000000000000000000000000000000000000000 DUP2 MSTORE PUSH1 0x4 ADD PUSH2 0xB92 SWAP1 PUSH2 0x215D JUMP JUMPDEST PUSH1 0x40 MLOAD DUP1 SWAP2 SUB SWAP1 REVERT JUMPDEST PUSH1 0x0 PUSH1 0x1 PUSH1 0x0 DUP4 DUP2 MSTORE PUSH1 0x20 ADD SWAP1 DUP2 MSTORE PUSH1 0x20 ADD PUSH1 0x0 KECCAK256 SWAP1 POP DUP1 PUSH1 0x6 ADD PUSH1 0x0 SWAP1 SLOAD SWAP1 PUSH2 0x100 EXP SWAP1 DIV PUSH1 0xFF AND PUSH2 0xC03 JUMPI PUSH1 0x40 MLOAD PUSH32 0x8C379A000000000000000000000000000000000000000000000000000000000 DUP2 MSTORE PUSH1 0x4 ADD PUSH2 0xBFA SWAP1 PUSH2 0x21C9 JUMP JUMPDEST PUSH1 0x40 MLOAD DUP1 SWAP2 SUB SWAP1 REVERT JUMPDEST CALLVALUE DUP2 PUSH1 0x4 ADD PUSH1 0x0 DUP3 DUP3 SLOAD PUSH2 0xC17 SWAP2 SWAP1 PUSH2 0x21E9 JUMP JUMPDEST SWAP3 POP POP DUP2 SWAP1 SSTORE POP PUSH32 0xB5B4C52969FF7329ECF7EE536409FDA87812B15A8622BC6E8CDEAB3AEE14A26 DUP3 CALLER CALLVALUE PUSH1 0x40 MLOAD PUSH2 0xC51 SWAP4 SWAP3 SWAP2 SWAP1 PUSH2 0x221D JUMP JUMPDEST PUSH1 0x40 MLOAD DUP1 SWAP2 SUB SWAP1 LOG1 POP POP POP JUMP JUMPDEST PUSH1 0x0 PUSH20 0xFFFFFFFFFFFFFFFFFFFFFFFFFFFFFFFFFFFFFFFF AND PUSH1 0x0 DUP1 DUP6 PUSH20 0xFFFFFFFFFFFFFFFFFFFFFFFFFFFFFFFFFFFFFFFF AND PUSH20 0xFFFFFFFFFFFFFFFFFFFFFFFFFFFFFFFFFFFFFFFF AND DUP2 MSTORE PUSH1 0x20 ADD SWAP1 DUP2 MSTORE PUSH1 0x20 ADD PUSH1 0x0 KECCAK256 PUSH1 0x0 ADD PUSH1 0x0 SWAP1 SLOAD SWAP1 PUSH2 0x100 EXP SWAP1 DIV PUSH20 0xFFFFFFFFFFFFFFFFFFFFFFFFFFFFFFFFFFFFFFFF AND PUSH20 0xFFFFFFFFFFFFFFFFFFFFFFFFFFFFFFFFFFFFFFFF AND EQ PUSH2 0xD2E JUMPI PUSH1 0x40 MLOAD PUSH32 0x8C379A000000000000000000000000000000000000000000000000000000000 DUP2 MSTORE PUSH1 0x4 ADD PUSH2 0xD25 SWAP1 PUSH2 0x22A0 JUMP JUMPDEST PUSH1 0x40 MLOAD DUP1 SWAP2 SUB SWAP1 REVERT JUMPDEST PUSH1 0x40 MLOAD DUP1 PUSH1 0x60 ADD PUSH1 0x40 MSTORE DUP1 DUP5 PUSH20 0xFFFFFFFFFFFFFFFFFFFFFFFFFFFFFFFFFFFFFFFF AND DUP2 MSTORE PUSH1 0x20 ADD DUP4 PUSH1 0x3 DUP2 GT ISZERO PUSH2 0xD68 JUMPI PUSH2 0xD67 PUSH2 0x131D JUMP JUMPDEST JUMPDEST DUP2 MSTORE PUSH1 0x20 ADD DUP3 DUP2 MSTORE POP PUSH1 0x0 DUP1 DUP6 PUSH20 0xFFFFFFFFFFFFFFFFFFFFFFFFFFFFFFFFFFFFFFFF AND PUSH20 0xFFFFFFFFFFFFFFFFFFFFFFFFFFFFFFFFFFFFFFFF AND DUP2 MSTORE PUSH1 0x20 ADD SWAP1 DUP2 MSTORE PUSH1 0x20 ADD PUSH1 0x0 KECCAK256 PUSH1 0x0 DUP3 ADD MLOAD DUP2 PUSH1 0x0 ADD PUSH1 0x0 PUSH2 0x100 EXP DUP2 SLOAD DUP2 PUSH20 0xFFFFFFFFFFFFFFFFFFFFFFFFFFFFFFFFFFFFFFFF MUL NOT AND SWAP1 DUP4 PUSH20 0xFFFFFFFFFFFFFFFFFFFFFFFFFFFFFFFFFFFFFFFF AND MUL OR SWAP1 SSTORE POP PUSH1 0x20 DUP3 ADD MLOAD DUP2 PUSH1 0x0 ADD PUSH1 0x14 PUSH2 0x100 EXP DUP2 SLOAD DUP2 PUSH1 0xFF MUL NOT AND SWAP1 DUP4 PUSH1 0x3 DUP2 GT ISZERO PUSH2 0xE21 JUMPI PUSH2 0xE20 PUSH2 0x131D JUMP JUMPDEST JUMPDEST MUL OR SWAP1 SSTORE POP PUSH1 0x40 DUP3 ADD MLOAD DUP2 PUSH1 0x1 ADD SWAP1 DUP2 PUSH2 0xE3B SWAP2 SWAP1 PUSH2 0x1FD2 JUMP JUMPDEST POP SWAP1 POP POP PUSH32 0x8E18574F8A7333E6A87112742A55853A643E2F0550F4E1A3A2C3F1BB2994441D DUP4 DUP4 PUSH1 0x40 MLOAD PUSH2 0xE70 SWAP3 SWAP2 SWAP1 PUSH2 0x22C0 JUMP JUMPDEST PUSH1 0x40 MLOAD DUP1 SWAP2 SUB SWAP1 LOG1 POP POP POP JUMP JUMPDEST PUSH1 0x1 PUSH1 0x20 MSTORE DUP1 PUSH1 0x0 MSTORE PUSH1 0x40 PUSH1 0x0 KECCAK256 PUSH1 0x0 SWAP2 POP SWAP1 POP DUP1 PUSH1 0x0 ADD DUP1 SLOAD PUSH2 0xEA0 SWAP1 PUSH2 0x1B34 JUMP JUMPDEST DUP1 PUSH1 0x1F ADD PUSH1 0x20 DUP1 SWAP2 DIV MUL PUSH1 0x20 ADD PUSH1 0x40 MLOAD SWAP1 DUP2 ADD PUSH1 0x40 MSTORE DUP1 SWAP3 SWAP2 SWAP1 DUP2 DUP2 MSTORE PUSH1 0x20 ADD DUP3 DUP1 SLOAD PUSH2 0xECC SWAP1 PUSH2 0x1B34 JUMP JUMPDEST DUP1 ISZERO PUSH2 0xF19 JUMPI DUP1 PUSH1 0x1F LT PUSH2 0xEEE JUMPI PUSH2 0x100 DUP1 DUP4 SLOAD DIV MUL DUP4 MSTORE SWAP2 PUSH1 0x20 ADD SWAP2 PUSH2 0xF19 JUMP JUMPDEST DUP3 ADD SWAP2 SWAP1 PUSH1 0x0 MSTORE PUSH1 0x20 PUSH1 0x0 KECCAK256 SWAP1 JUMPDEST DUP2 SLOAD DUP2 MSTORE SWAP1 PUSH1 0x1 ADD SWAP1 PUSH1 0x20 ADD DUP1 DUP4 GT PUSH2 0xEFC JUMPI DUP3 SWAP1 SUB PUSH1 0x1F AND DUP3 ADD SWAP2 JUMPDEST POP POP POP POP POP SWAP1 DUP1 PUSH1 0x1 ADD PUSH1 0x0 SWAP1 SLOAD SWAP1 PUSH2 0x100 EXP SWAP1 DIV PUSH20 0xFFFFFFFFFFFFFFFFFFFFFFFFFFFFFFFFFFFFFFFF AND SWAP1 DUP1 PUSH1 0x2 ADD DUP1 SLOAD PUSH2 0xF54 SWAP1 PUSH2 0x1B34 JUMP JUMPDEST DUP1 PUSH1 0x1F ADD PUSH1 0x20 DUP1 SWAP2 DIV MUL PUSH1 0x20 ADD PUSH1 0x40 MLOAD SWAP1 DUP2 ADD PUSH1 0x40 MSTORE DUP1 SWAP3 SWAP2 SWAP1 DUP2 DUP2 MSTORE PUSH1 0x20 ADD DUP3 DUP1 SLOAD PUSH2 0xF80 SWAP1 PUSH2 0x1B34 JUMP JUMPDEST DUP1 ISZERO PUSH2 0xFCD JUMPI DUP1 PUSH1 0x1F LT PUSH2 0xFA2 JUMPI PUSH2 0x100 DUP1 DUP4 SLOAD DIV MUL DUP4 MSTORE SWAP2 PUSH1 0x20 ADD SWAP2 PUSH2 0xFCD JUMP JUMPDEST DUP3 ADD SWAP2 SWAP1 PUSH1 0x0 MSTORE PUSH1 0x20 PUSH1 0x0 KECCAK256 SWAP1 JUMPDEST DUP2 SLOAD DUP2 MSTORE SWAP1 PUSH1 0x1 ADD SWAP1 PUSH1 0x20 ADD DUP1 DUP4 GT PUSH2 0xFB0 JUMPI DUP3 SWAP1 SUB PUSH1 0x1F AND DUP3 ADD SWAP2 JUMPDEST POP POP POP POP POP SWAP1 DUP1 PUSH1 0x3 ADD SLOAD SWAP1 DUP1 PUSH1 0x4 ADD SLOAD SWAP1 DUP1 PUSH1 0x6 ADD PUSH1 0x0 SWAP1 SLOAD SWAP1 PUSH2 0x100 EXP SWAP1 DIV PUSH1 0xFF AND SWAP1 POP DUP7 JUMP JUMPDEST PUSH1 0x40 MLOAD DUP1 PUSH1 0xE0 ADD PUSH1 0x40 MSTORE DUP1 PUSH1 0x60 DUP2 MSTORE PUSH1 0x20 ADD PUSH1 0x0 PUSH20 0xFFFFFFFFFFFFFFFFFFFFFFFFFFFFFFFFFFFFFFFF AND DUP2 MSTORE PUSH1 0x20 ADD PUSH1 0x60 DUP2 MSTORE PUSH1 0x20 ADD PUSH1 0x0 DUP2 MSTORE PUSH1 0x20 ADD PUSH1 0x0 DUP2 MSTORE PUSH1 0x20 ADD PUSH1 0x60 DUP2 MSTORE PUSH1 0x20 ADD PUSH1 0x0 ISZERO ISZERO DUP2 MSTORE POP SWAP1 JUMP JUMPDEST PUSH1 0x0 DUP2 SWAP1 POP SWAP2 SWAP1 POP JUMP JUMPDEST PUSH2 0x105E DUP2 PUSH2 0x104B JUMP JUMPDEST DUP3 MSTORE POP POP JUMP JUMPDEST PUSH1 0x0 PUSH1 0x20 DUP3 ADD SWAP1 POP PUSH2 0x1079 PUSH1 0x0 DUP4 ADD DUP5 PUSH2 0x1055 JUMP JUMPDEST SWAP3 SWAP2 POP POP JUMP JUMPDEST PUSH1 0x0 PUSH1 0x40 MLOAD SWAP1 POP SWAP1 JUMP JUMPDEST PUSH1 0x0 DUP1 REVERT JUMPDEST PUSH1 0x0 DUP1 REVERT JUMPDEST PUSH1 0x0 DUP1 REVERT JUMPDEST PUSH1 0x0 DUP1 REVERT JUMPDEST PUSH1 0x0 PUSH1 0x1F NOT PUSH1 0x1F DUP4 ADD AND SWAP1 POP SWAP2 SWAP1 POP JUMP JUMPDEST PUSH32 0x4E487B7100000000000000000000000000000000000000000000000000000000 PUSH1 0x0 MSTORE PUSH1 0x41 PUSH1 0x4 MSTORE PUSH1 0x24 PUSH1 0x0 REVERT JUMPDEST PUSH2 0x10E6 DUP3 PUSH2 0x109D JUMP JUMPDEST DUP2 ADD DUP2 DUP2 LT PUSH8 0xFFFFFFFFFFFFFFFF DUP3 GT OR ISZERO PUSH2 0x1105 JUMPI PUSH2 0x1104 PUSH2 0x10AE JUMP JUMPDEST JUMPDEST DUP1 PUSH1 0x40 MSTORE POP POP POP JUMP JUMPDEST PUSH1 0x0 PUSH2 0x1118 PUSH2 0x107F JUMP JUMPDEST SWAP1 POP PUSH2 0x1124 DUP3 DUP3 PUSH2 0x10DD JUMP JUMPDEST SWAP2 SWAP1 POP JUMP JUMPDEST PUSH1 0x0 PUSH8 0xFFFFFFFFFFFFFFFF DUP3 GT ISZERO PUSH2 0x1144 JUMPI PUSH2 0x1143 PUSH2 0x10AE JUMP JUMPDEST JUMPDEST PUSH2 0x114D DUP3 PUSH2 0x109D JUMP JUMPDEST SWAP1 POP PUSH1 0x20 DUP2 ADD SWAP1 POP SWAP2 SWAP1 POP JUMP JUMPDEST DUP3 DUP2 DUP4 CALLDATACOPY PUSH1 0x0 DUP4 DUP4 ADD MSTORE POP POP POP JUMP JUMPDEST PUSH1 0x0 PUSH2 0x117C PUSH2 0x1177 DUP5 PUSH2 0x1129 JUMP JUMPDEST PUSH2 0x110E JUMP JUMPDEST SWAP1 POP DUP3 DUP2 MSTORE PUSH1 0x20 DUP2 ADD DUP5 DUP5 DUP5 ADD GT ISZERO PUSH2 0x1198 JUMPI PUSH2 0x1197 PUSH2 0x1098 JUMP JUMPDEST JUMPDEST PUSH2 0x11A3 DUP5 DUP3 DUP6 PUSH2 0x115A JUMP JUMPDEST POP SWAP4 SWAP3 POP POP POP JUMP JUMPDEST PUSH1 0x0 DUP3 PUSH1 0x1F DUP4 ADD SLT PUSH2 0x11C0 JUMPI PUSH2 0x11BF PUSH2 0x1093 JUMP JUMPDEST JUMPDEST DUP2 CALLDATALOAD PUSH2 0x11D0 DUP5 DUP3 PUSH1 0x20 DUP7 ADD PUSH2 0x1169 JUMP JUMPDEST SWAP2 POP POP SWAP3 SWAP2 POP POP JUMP JUMPDEST PUSH1 0x0 PUSH1 0x20 DUP3 DUP5 SUB SLT ISZERO PUSH2 0x11EF JUMPI PUSH2 0x11EE PUSH2 0x1089 JUMP JUMPDEST JUMPDEST PUSH1 0x0 DUP3 ADD CALLDATALOAD PUSH8 0xFFFFFFFFFFFFFFFF DUP2 GT ISZERO PUSH2 0x120D JUMPI PUSH2 0x120C PUSH2 0x108E JUMP JUMPDEST JUMPDEST PUSH2 0x1219 DUP5 DUP3 DUP6 ADD PUSH2 0x11AB JUMP JUMPDEST SWAP2 POP POP SWAP3 SWAP2 POP POP JUMP JUMPDEST PUSH1 0x0 DUP2 MLOAD SWAP1 POP SWAP2 SWAP1 POP JUMP JUMPDEST PUSH1 0x0 DUP3 DUP3 MSTORE PUSH1 0x20 DUP3 ADD SWAP1 POP SWAP3 SWAP2 POP POP JUMP JUMPDEST PUSH1 0x0 JUMPDEST DUP4 DUP2 LT ISZERO PUSH2 0x125C JUMPI DUP1 DUP3 ADD MLOAD DUP2 DUP5 ADD MSTORE PUSH1 0x20 DUP2 ADD SWAP1 POP PUSH2 0x1241 JUMP JUMPDEST PUSH1 0x0 DUP5 DUP5 ADD MSTORE POP POP POP POP JUMP JUMPDEST PUSH1 0x0 PUSH2 0x1273 DUP3 PUSH2 0x1222 JUMP JUMPDEST PUSH2 0x127D DUP2 DUP6 PUSH2 0x122D JUMP JUMPDEST SWAP4 POP PUSH2 0x128D DUP2 DUP6 PUSH1 0x20 DUP7 ADD PUSH2 0x123E JUMP JUMPDEST PUSH2 0x1296 DUP2 PUSH2 0x109D JUMP JUMPDEST DUP5 ADD SWAP2 POP POP SWAP3 SWAP2 POP POP JUMP JUMPDEST PUSH1 0x0 PUSH20 0xFFFFFFFFFFFFFFFFFFFFFFFFFFFFFFFFFFFFFFFF DUP3 AND SWAP1 POP SWAP2 SWAP1 POP JUMP JUMPDEST PUSH1 0x0 PUSH2 0x12CC DUP3 PUSH2 0x12A1 JUMP JUMPDEST SWAP1 POP SWAP2 SWAP1 POP JUMP JUMPDEST PUSH2 0x12DC DUP2 PUSH2 0x12C1 JUMP JUMPDEST DUP3 MSTORE POP POP JUMP JUMPDEST PUSH2 0x12EB DUP2 PUSH2 0x104B JUMP JUMPDEST DUP3 MSTORE POP POP JUMP JUMPDEST PUSH1 0x0 DUP2 MLOAD SWAP1 POP SWAP2 SWAP1 POP JUMP JUMPDEST PUSH1 0x0 DUP3 DUP3 MSTORE PUSH1 0x20 DUP3 ADD SWAP1 POP SWAP3 SWAP2 POP POP JUMP JUMPDEST PUSH1 0x0 DUP2 SWAP1 POP PUSH1 0x20 DUP3 ADD SWAP1 POP SWAP2 SWAP1 POP JUMP JUMPDEST PUSH32 0x4E487B7100000000000000000000000000000000000000000000000000000000 PUSH1 0x0 MSTORE PUSH1 0x21 PUSH1 0x4 MSTORE PUSH1 0x24 PUSH1 0x0 REVERT JUMPDEST PUSH1 0x3 DUP2 LT PUSH2 0x135D JUMPI PUSH2 0x135C PUSH2 0x131D JUMP JUMPDEST JUMPDEST POP JUMP JUMPDEST PUSH1 0x0 DUP2 SWAP1 POP PUSH2 0x136E DUP3 PUSH2 0x134C JUMP JUMPDEST SWAP2 SWAP1 POP JUMP JUMPDEST PUSH1 0x0 PUSH2 0x137E DUP3 PUSH2 0x1360 JUMP JUMPDEST SWAP1 POP SWAP2 SWAP1 POP JUMP JUMPDEST PUSH2 0x138E DUP2 PUSH2 0x1373 JUMP JUMPDEST DUP3 MSTORE POP POP JUMP JUMPDEST PUSH1 0x0 PUSH1 0x80 DUP4 ADD PUSH1 0x0 DUP4 ADD MLOAD DUP5 DUP3 SUB PUSH1 0x0 DUP7 ADD MSTORE PUSH2 0x13B1 DUP3 DUP3 PUSH2 0x1268 JUMP JUMPDEST SWAP2 POP POP PUSH1 0x20 DUP4 ADD MLOAD PUSH2 0x13C6 PUSH1 0x20 DUP7 ADD DUP3 PUSH2 0x12E2 JUMP JUMPDEST POP PUSH1 0x40 DUP4 ADD MLOAD PUSH2 0x13D9 PUSH1 0x40 DUP7 ADD DUP3 PUSH2 0x1385 JUMP JUMPDEST POP PUSH1 0x60 DUP4 ADD MLOAD DUP5 DUP3 SUB PUSH1 0x60 DUP7 ADD MSTORE PUSH2 0x13F1 DUP3 DUP3 PUSH2 0x1268 JUMP JUMPDEST SWAP2 POP POP DUP1 SWAP2 POP POP SWAP3 SWAP2 POP POP JUMP JUMPDEST PUSH1 0x0 PUSH2 0x140A DUP4 DUP4 PUSH2 0x1394 JUMP JUMPDEST SWAP1 POP SWAP3 SWAP2 POP POP JUMP JUMPDEST PUSH1 0x0 PUSH1 0x20 DUP3 ADD SWAP1 POP SWAP2 SWAP1 POP JUMP JUMPDEST PUSH1 0x0 PUSH2 0x142A DUP3 PUSH2 0x12F1 JUMP JUMPDEST PUSH2 0x1434 DUP2 DUP6 PUSH2 0x12FC JUMP JUMPDEST SWAP4 POP DUP4 PUSH1 0x20 DUP3 MUL DUP6 ADD PUSH2 0x1446 DUP6 PUSH2 0x130D JUMP JUMPDEST DUP1 PUSH1 0x0 JUMPDEST DUP6 DUP2 LT ISZERO PUSH2 0x1482 JUMPI DUP5 DUP5 SUB DUP10 MSTORE DUP2 MLOAD PUSH2 0x1463 DUP6 DUP3 PUSH2 0x13FE JUMP JUMPDEST SWAP5 POP PUSH2 0x146E DUP4 PUSH2 0x1412 JUMP JUMPDEST SWAP3 POP PUSH1 0x20 DUP11 ADD SWAP10 POP POP PUSH1 0x1 DUP2 ADD SWAP1 POP PUSH2 0x144A JUMP JUMPDEST POP DUP3 SWAP8 POP DUP8 SWAP6 POP POP POP POP POP POP SWAP3 SWAP2 POP POP JUMP JUMPDEST PUSH1 0x0 DUP2 ISZERO ISZERO SWAP1 POP SWAP2 SWAP1 POP JUMP JUMPDEST PUSH2 0x14A9 DUP2 PUSH2 0x1494 JUMP JUMPDEST DUP3 MSTORE POP POP JUMP JUMPDEST PUSH1 0x0 PUSH1 0xE0 DUP4 ADD PUSH1 0x0 DUP4 ADD MLOAD DUP5 DUP3 SUB PUSH1 0x0 DUP7 ADD MSTORE PUSH2 0x14CC DUP3 DUP3 PUSH2 0x1268 JUMP JUMPDEST SWAP2 POP POP PUSH1 0x20 DUP4 ADD MLOAD PUSH2 0x14E1 PUSH1 0x20 DUP7 ADD DUP3 PUSH2 0x12D3 JUMP JUMPDEST POP PUSH1 0x40 DUP4 ADD MLOAD DUP5 DUP3 SUB PUSH1 0x40 DUP7 ADD MSTORE PUSH2 0x14F9 DUP3 DUP3 PUSH2 0x1268 JUMP JUMPDEST SWAP2 POP POP PUSH1 0x60 DUP4 ADD MLOAD PUSH2 0x150E PUSH1 0x60 DUP7 ADD DUP3 PUSH2 0x12E2 JUMP JUMPDEST POP PUSH1 0x80 DUP4 ADD MLOAD PUSH2 0x1521 PUSH1 0x80 DUP7 ADD DUP3 PUSH2 0x12E2 JUMP JUMPDEST POP PUSH1 0xA0 DUP4 ADD MLOAD DUP5 DUP3 SUB PUSH1 0xA0 DUP7 ADD MSTORE PUSH2 0x1539 DUP3 DUP3 PUSH2 0x141F JUMP JUMPDEST SWAP2 POP POP PUSH1 0xC0 DUP4 ADD MLOAD PUSH2 0x154E PUSH1 0xC0 DUP7 ADD DUP3 PUSH2 0x14A0 JUMP JUMPDEST POP DUP1 SWAP2 POP POP SWAP3 SWAP2 POP POP JUMP JUMPDEST PUSH1 0x0 PUSH1 0x20 DUP3 ADD SWAP1 POP DUP2 DUP2 SUB PUSH1 0x0 DUP4 ADD MSTORE PUSH2 0x1573 DUP2 DUP5 PUSH2 0x14AF JUMP JUMPDEST SWAP1 POP SWAP3 SWAP2 POP POP JUMP JUMPDEST PUSH2 0x1584 DUP2 PUSH2 0x12C1 JUMP JUMPDEST DUP2 EQ PUSH2 0x158F JUMPI PUSH1 0x0 DUP1 REVERT JUMPDEST POP JUMP JUMPDEST PUSH1 0x0 DUP2 CALLDATALOAD SWAP1 POP PUSH2 0x15A1 DUP2 PUSH2 0x157B JUMP JUMPDEST SWAP3 SWAP2 POP POP JUMP JUMPDEST PUSH1 0x0 PUSH1 0x20 DUP3 DUP5 SUB SLT ISZERO PUSH2 0x15BD JUMPI PUSH2 0x15BC PUSH2 0x1089 JUMP JUMPDEST JUMPDEST PUSH1 0x0 PUSH2 0x15CB DUP5 DUP3 DUP6 ADD PUSH2 0x1592 JUMP JUMPDEST SWAP2 POP POP SWAP3 SWAP2 POP POP JUMP JUMPDEST PUSH2 0x15DD DUP2 PUSH2 0x12C1 JUMP JUMPDEST DUP3 MSTORE POP POP JUMP JUMPDEST PUSH1 0x4 DUP2 LT PUSH2 0x15F4 JUMPI PUSH2 0x15F3 PUSH2 0x131D JUMP JUMPDEST JUMPDEST POP JUMP JUMPDEST PUSH1 0x0 DUP2 SWAP1 POP PUSH2 0x1605 DUP3 PUSH2 0x15E3 JUMP JUMPDEST SWAP2 SWAP1 POP JUMP JUMPDEST PUSH1 0x0 PUSH2 0x1615 DUP3 PUSH2 0x15F7 JUMP JUMPDEST SWAP1 POP SWAP2 SWAP1 POP JUMP JUMPDEST PUSH2 0x1625 DUP2 PUSH2 0x160A JUMP JUMPDEST DUP3 MSTORE POP POP JUMP JUMPDEST PUSH1 0x0 DUP3 DUP3 MSTORE PUSH1 0x20 DUP3 ADD SWAP1 POP SWAP3 SWAP2 POP POP JUMP JUMPDEST PUSH1 0x0 PUSH2 0x1647 DUP3 PUSH2 0x1222 JUMP JUMPDEST PUSH2 0x1651 DUP2 DUP6 PUSH2 0x162B JUMP JUMPDEST SWAP4 POP PUSH2 0x1661 DUP2 DUP6 PUSH1 0x20 DUP7 ADD PUSH2 0x123E JUMP JUMPDEST PUSH2 0x166A DUP2 PUSH2 0x109D JUMP JUMPDEST DUP5 ADD SWAP2 POP POP SWAP3 SWAP2 POP POP JUMP JUMPDEST PUSH1 0x0 PUSH1 0x60 DUP3 ADD SWAP1 POP PUSH2 0x168A PUSH1 0x0 DUP4 ADD DUP7 PUSH2 0x15D4 JUMP JUMPDEST PUSH2 0x1697 PUSH1 0x20 DUP4 ADD DUP6 PUSH2 0x161C JUMP JUMPDEST DUP2 DUP2 SUB PUSH1 0x40 DUP4 ADD MSTORE PUSH2 0x16A9 DUP2 DUP5 PUSH2 0x163C JUMP JUMPDEST SWAP1 POP SWAP5 SWAP4 POP POP POP POP JUMP JUMPDEST PUSH2 0x16BC DUP2 PUSH2 0x104B JUMP JUMPDEST DUP2 EQ PUSH2 0x16C7 JUMPI PUSH1 0x0 DUP1 REVERT JUMPDEST POP JUMP JUMPDEST PUSH1 0x0 DUP2 CALLDATALOAD SWAP1 POP PUSH2 0x16D9 DUP2 PUSH2 0x16B3 JUMP JUMPDEST SWAP3 SWAP2 POP POP JUMP JUMPDEST PUSH1 0x0 PUSH8 0xFFFFFFFFFFFFFFFF DUP3 GT ISZERO PUSH2 0x16FA JUMPI PUSH2 0x16F9 PUSH2 0x10AE JUMP JUMPDEST JUMPDEST PUSH1 0x20 DUP3 MUL SWAP1 POP PUSH1 0x20 DUP2 ADD SWAP1 POP SWAP2 SWAP1 POP JUMP JUMPDEST PUSH1 0x0 DUP1 REVERT JUMPDEST PUSH1 0x0 PUSH2 0x1723 PUSH2 0x171E DUP5 PUSH2 0x16DF JUMP JUMPDEST PUSH2 0x110E JUMP JUMPDEST SWAP1 POP DUP1 DUP4 DUP3 MSTORE PUSH1 0x20 DUP3 ADD SWAP1 POP PUSH1 0x20 DUP5 MUL DUP4 ADD DUP6 DUP2 GT ISZERO PUSH2 0x1746 JUMPI PUSH2 0x1745 PUSH2 0x170B JUMP JUMPDEST JUMPDEST DUP4 JUMPDEST DUP2 DUP2 LT ISZERO PUSH2 0x178D JUMPI DUP1 CALLDATALOAD PUSH8 0xFFFFFFFFFFFFFFFF DUP2 GT ISZERO PUSH2 0x176B JUMPI PUSH2 0x176A PUSH2 0x1093 JUMP JUMPDEST JUMPDEST DUP1 DUP7 ADD PUSH2 0x1778 DUP10 DUP3 PUSH2 0x11AB JUMP JUMPDEST DUP6 MSTORE PUSH1 0x20 DUP6 ADD SWAP5 POP POP POP PUSH1 0x20 DUP2 ADD SWAP1 POP PUSH2 0x1748 JUMP JUMPDEST POP POP POP SWAP4 SWAP3 POP POP POP JUMP JUMPDEST PUSH1 0x0 DUP3 PUSH1 0x1F DUP4 ADD SLT PUSH2 0x17AC JUMPI PUSH2 0x17AB PUSH2 0x1093 JUMP JUMPDEST JUMPDEST DUP2 CALLDATALOAD PUSH2 0x17BC DUP5 DUP3 PUSH1 0x20 DUP7 ADD PUSH2 0x1710 JUMP JUMPDEST SWAP2 POP POP SWAP3 SWAP2 POP POP JUMP JUMPDEST PUSH1 0x0 PUSH8 0xFFFFFFFFFFFFFFFF DUP3 GT ISZERO PUSH2 0x17E0 JUMPI PUSH2 0x17DF PUSH2 0x10AE JUMP JUMPDEST JUMPDEST PUSH1 0x20 DUP3 MUL SWAP1 POP PUSH1 0x20 DUP2 ADD SWAP1 POP SWAP2 SWAP1 POP JUMP JUMPDEST PUSH1 0x0 PUSH2 0x1804 PUSH2 0x17FF DUP5 PUSH2 0x17C5 JUMP JUMPDEST PUSH2 0x110E JUMP JUMPDEST SWAP1 POP DUP1 DUP4 DUP3 MSTORE PUSH1 0x20 DUP3 ADD SWAP1 POP PUSH1 0x20 DUP5 MUL DUP4 ADD DUP6 DUP2 GT ISZERO PUSH2 0x1827 JUMPI PUSH2 0x1826 PUSH2 0x170B JUMP JUMPDEST JUMPDEST DUP4 JUMPDEST DUP2 DUP2 LT ISZERO PUSH2 0x1850 JUMPI DUP1 PUSH2 0x183C DUP9 DUP3 PUSH2 0x16CA JUMP JUMPDEST DUP5 MSTORE PUSH1 0x20 DUP5 ADD SWAP4 POP POP PUSH1 0x20 DUP2 ADD SWAP1 POP PUSH2 0x1829 JUMP JUMPDEST POP POP POP SWAP4 SWAP3 POP POP POP JUMP JUMPDEST PUSH1 0x0 DUP3 PUSH1 0x1F DUP4 ADD SLT PUSH2 0x186F JUMPI PUSH2 0x186E PUSH2 0x1093 JUMP JUMPDEST JUMPDEST DUP2 CALLDATALOAD PUSH2 0x187F DUP5 DUP3 PUSH1 0x20 DUP7 ADD PUSH2 0x17F1 JUMP JUMPDEST SWAP2 POP POP SWAP3 SWAP2 POP POP JUMP JUMPDEST PUSH1 0x0 DUP1 PUSH1 0x0 DUP1 PUSH1 0x0 PUSH1 0xA0 DUP7 DUP9 SUB SLT ISZERO PUSH2 0x18A4 JUMPI PUSH2 0x18A3 PUSH2 0x1089 JUMP JUMPDEST JUMPDEST PUSH1 0x0 DUP7 ADD CALLDATALOAD PUSH8 0xFFFFFFFFFFFFFFFF DUP2 GT ISZERO PUSH2 0x18C2 JUMPI PUSH2 0x18C1 PUSH2 0x108E JUMP JUMPDEST JUMPDEST PUSH2 0x18CE DUP9 DUP3 DUP10 ADD PUSH2 0x11AB JUMP JUMPDEST SWAP6 POP POP PUSH1 0x20 DUP7 ADD CALLDATALOAD PUSH8 0xFFFFFFFFFFFFFFFF DUP2 GT ISZERO PUSH2 0x18EF JUMPI PUSH2 0x18EE PUSH2 0x108E JUMP JUMPDEST JUMPDEST PUSH2 0x18FB DUP9 DUP3 DUP10 ADD PUSH2 0x11AB JUMP JUMPDEST SWAP5 POP POP PUSH1 0x40 PUSH2 0x190C DUP9 DUP3 DUP10 ADD PUSH2 0x16CA JUMP JUMPDEST SWAP4 POP POP PUSH1 0x60 DUP7 ADD CALLDATALOAD PUSH8 0xFFFFFFFFFFFFFFFF DUP2 GT ISZERO PUSH2 0x192D JUMPI PUSH2 0x192C PUSH2 0x108E JUMP JUMPDEST JUMPDEST PUSH2 0x1939 DUP9 DUP3 DUP10 ADD PUSH2 0x1797 JUMP JUMPDEST SWAP3 POP POP PUSH1 0x80 DUP7 ADD CALLDATALOAD PUSH8 0xFFFFFFFFFFFFFFFF DUP2 GT ISZERO PUSH2 0x195A JUMPI PUSH2 0x1959 PUSH2 0x108E JUMP JUMPDEST JUMPDEST PUSH2 0x1966 DUP9 DUP3 DUP10 ADD PUSH2 0x185A JUMP JUMPDEST SWAP2 POP POP SWAP3 SWAP6 POP SWAP3 SWAP6 SWAP1 SWAP4 POP JUMP JUMPDEST PUSH1 0x4 DUP2 LT PUSH2 0x1980 JUMPI PUSH1 0x0 DUP1 REVERT JUMPDEST POP JUMP JUMPDEST PUSH1 0x0 DUP2 CALLDATALOAD SWAP1 POP PUSH2 0x1992 DUP2 PUSH2 0x1973 JUMP JUMPDEST SWAP3 SWAP2 POP POP JUMP JUMPDEST PUSH1 0x0 DUP1 PUSH1 0x0 PUSH1 0x60 DUP5 DUP7 SUB SLT ISZERO PUSH2 0x19B1 JUMPI PUSH2 0x19B0 PUSH2 0x1089 JUMP JUMPDEST JUMPDEST PUSH1 0x0 PUSH2 0x19BF DUP7 DUP3 DUP8 ADD PUSH2 0x1592 JUMP JUMPDEST SWAP4 POP POP PUSH1 0x20 PUSH2 0x19D0 DUP7 DUP3 DUP8 ADD PUSH2 0x1983 JUMP JUMPDEST SWAP3 POP POP PUSH1 0x40 DUP5 ADD CALLDATALOAD PUSH8 0xFFFFFFFFFFFFFFFF DUP2 GT ISZERO PUSH2 0x19F1 JUMPI PUSH2 0x19F0 PUSH2 0x108E JUMP JUMPDEST JUMPDEST PUSH2 0x19FD DUP7 DUP3 DUP8 ADD PUSH2 0x11AB JUMP JUMPDEST SWAP2 POP POP SWAP3 POP SWAP3 POP SWAP3 JUMP JUMPDEST PUSH1 0x0 PUSH1 0x20 DUP3 DUP5 SUB SLT ISZERO PUSH2 0x1A1D JUMPI PUSH2 0x1A1C PUSH2 0x1089 JUMP JUMPDEST JUMPDEST PUSH1 0x0 PUSH2 0x1A2B DUP5 DUP3 DUP6 ADD PUSH2 0x16CA JUMP JUMPDEST SWAP2 POP POP SWAP3 SWAP2 POP POP JUMP JUMPDEST PUSH2 0x1A3D DUP2 PUSH2 0x1494 JUMP JUMPDEST DUP3 MSTORE POP POP JUMP JUMPDEST PUSH1 0x0 PUSH1 0xC0 DUP3 ADD SWAP1 POP DUP2 DUP2 SUB PUSH1 0x0 DUP4 ADD MSTORE PUSH2 0x1A5D DUP2 DUP10 PUSH2 0x163C JUMP JUMPDEST SWAP1 POP PUSH2 0x1A6C PUSH1 0x20 DUP4 ADD DUP9 PUSH2 0x15D4 JUMP JUMPDEST DUP2 DUP2 SUB PUSH1 0x40 DUP4 ADD MSTORE PUSH2 0x1A7E DUP2 DUP8 PUSH2 0x163C JUMP JUMPDEST SWAP1 POP PUSH2 0x1A8D PUSH1 0x60 DUP4 ADD DUP7 PUSH2 0x1055 JUMP JUMPDEST PUSH2 0x1A9A PUSH1 0x80 DUP4 ADD DUP6 PUSH2 0x1055 JUMP JUMPDEST PUSH2 0x1AA7 PUSH1 0xA0 DUP4 ADD DUP5 PUSH2 0x1A34 JUMP JUMPDEST SWAP8 SWAP7 POP POP POP POP POP POP POP JUMP JUMPDEST PUSH1 0x0 DUP2 SWAP1 POP SWAP3 SWAP2 POP POP JUMP JUMPDEST PUSH1 0x0 PUSH2 0x1AC8 DUP3 PUSH2 0x1222 JUMP JUMPDEST PUSH2 0x1AD2 DUP2 DUP6 PUSH2 0x1AB2 JUMP JUMPDEST SWAP4 POP PUSH2 0x1AE2 DUP2 DUP6 PUSH1 0x20 DUP7 ADD PUSH2 0x123E JUMP JUMPDEST DUP1 DUP5 ADD SWAP2 POP POP SWAP3 SWAP2 POP POP JUMP JUMPDEST PUSH1 0x0 PUSH2 0x1AFA DUP3 DUP5 PUSH2 0x1ABD JUMP JUMPDEST SWAP2 POP DUP2 SWAP1 POP SWAP3 SWAP2 POP POP JUMP JUMPDEST PUSH32 0x4E487B7100000000000000000000000000000000000000000000000000000000 PUSH1 0x0 MSTORE PUSH1 0x22 PUSH1 0x4 MSTORE PUSH1 0x24 PUSH1 0x0 REVERT JUMPDEST PUSH1 0x0 PUSH1 0x2 DUP3 DIV SWAP1 POP PUSH1 0x1 DUP3 AND DUP1 PUSH2 0x1B4C JUMPI PUSH1 0x7F DUP3 AND SWAP2 POP JUMPDEST PUSH1 0x20 DUP3 LT DUP2 SUB PUSH2 0x1B5F JUMPI PUSH2 0x1B5E PUSH2 0x1B05 JUMP JUMPDEST JUMPDEST POP SWAP2 SWAP1 POP JUMP JUMPDEST PUSH1 0x0 DUP2 SWAP1 POP DUP2 PUSH1 0x0 MSTORE PUSH1 0x20 PUSH1 0x0 KECCAK256 SWAP1 POP SWAP2 SWAP1 POP JUMP JUMPDEST PUSH1 0x0 DUP2 SLOAD PUSH2 0x1B87 DUP2 PUSH2 0x1B34 JUMP JUMPDEST PUSH2 0x1B91 DUP2 DUP7 PUSH2 0x1AB2 JUMP JUMPDEST SWAP5 POP PUSH1 0x1 DUP3 AND PUSH1 0x0 DUP2 EQ PUSH2 0x1BAC JUMPI PUSH1 0x1 DUP2 EQ PUSH2 0x1BC1 JUMPI PUSH2 0x1BF4 JUMP JUMPDEST PUSH1 0xFF NOT DUP4 AND DUP7 MSTORE DUP2 ISZERO ISZERO DUP3 MUL DUP7 ADD SWAP4 POP PUSH2 0x1BF4 JUMP JUMPDEST PUSH2 0x1BCA DUP6 PUSH2 0x1B65 JUMP JUMPDEST PUSH1 0x0 JUMPDEST DUP4 DUP2 LT ISZERO PUSH2 0x1BEC JUMPI DUP2 SLOAD DUP2 DUP10 ADD MSTORE PUSH1 0x1 DUP3 ADD SWAP2 POP PUSH1 0x20 DUP2 ADD SWAP1 POP PUSH2 0x1BCD JUMP JUMPDEST DUP4 DUP9 ADD SWAP6 POP POP POP JUMPDEST POP POP POP SWAP3 SWAP2 POP POP JUMP JUMPDEST PUSH1 0x0 PUSH2 0x1C09 DUP3 DUP5 PUSH2 0x1B7A JUMP JUMPDEST SWAP2 POP DUP2 SWAP1 POP SWAP3 SWAP2 POP POP JUMP JUMPDEST PUSH32 0x46756E64726169736572204944206D69736D6174636800000000000000000000 PUSH1 0x0 DUP3 ADD MSTORE POP JUMP JUMPDEST PUSH1 0x0 PUSH2 0x1C4A PUSH1 0x16 DUP4 PUSH2 0x162B JUMP JUMPDEST SWAP2 POP PUSH2 0x1C55 DUP3 PUSH2 0x1C14 JUMP JUMPDEST PUSH1 0x20 DUP3 ADD SWAP1 POP SWAP2 SWAP1 POP JUMP JUMPDEST PUSH1 0x0 PUSH1 0x20 DUP3 ADD SWAP1 POP DUP2 DUP2 SUB PUSH1 0x0 DUP4 ADD MSTORE PUSH2 0x1C79 DUP2 PUSH2 0x1C3D JUMP JUMPDEST SWAP1 POP SWAP2 SWAP1 POP JUMP JUMPDEST PUSH32 0x4E6F7420616E20696E737469747574696F6E0000000000000000000000000000 PUSH1 0x0 DUP3 ADD MSTORE POP JUMP JUMPDEST PUSH1 0x0 PUSH2 0x1CB6 PUSH1 0x12 DUP4 PUSH2 0x162B JUMP JUMPDEST SWAP2 POP PUSH2 0x1CC1 DUP3 PUSH2 0x1C80 JUMP JUMPDEST PUSH1 0x20 DUP3 ADD SWAP1 POP SWAP2 SWAP1 POP JUMP JUMPDEST PUSH1 0x0 PUSH1 0x20 DUP3 ADD SWAP1 POP DUP2 DUP2 SUB PUSH1 0x0 DUP4 ADD MSTORE PUSH2 0x1CE5 DUP2 PUSH2 0x1CA9 JUMP JUMPDEST SWAP1 POP SWAP2 SWAP1 POP JUMP JUMPDEST PUSH32 0x4D69736D6174636820696E206D696C6573746F6E657320646174610000000000 PUSH1 0x0 DUP3 ADD MSTORE POP JUMP JUMPDEST PUSH1 0x0 PUSH2 0x1D22 PUSH1 0x1B DUP4 PUSH2 0x162B JUMP JUMPDEST SWAP2 POP PUSH2 0x1D2D DUP3 PUSH2 0x1CEC JUMP JUMPDEST PUSH1 0x20 DUP3 ADD SWAP1 POP SWAP2 SWAP1 POP JUMP JUMPDEST PUSH1 0x0 PUSH1 0x20 DUP3 ADD SWAP1 POP DUP2 DUP2 SUB PUSH1 0x0 DUP4 ADD MSTORE PUSH2 0x1D51 DUP2 PUSH2 0x1D15 JUMP JUMPDEST SWAP1 POP SWAP2 SWAP1 POP JUMP JUMPDEST PUSH32 0x46756E6472616973657220494420616C72656164792065786973747300000000 PUSH1 0x0 DUP3 ADD MSTORE POP JUMP JUMPDEST PUSH1 0x0 PUSH2 0x1D8E PUSH1 0x1C DUP4 PUSH2 0x162B JUMP JUMPDEST SWAP2 POP PUSH2 0x1D99 DUP3 PUSH2 0x1D58 JUMP JUMPDEST PUSH1 0x20 DUP3 ADD SWAP1 POP SWAP2 SWAP1 POP JUMP JUMPDEST PUSH1 0x0 PUSH1 0x20 DUP3 ADD SWAP1 POP DUP2 DUP2 SUB PUSH1 0x0 DUP4 ADD MSTORE PUSH2 0x1DBD DUP2 PUSH2 0x1D81 JUMP JUMPDEST SWAP1 POP SWAP2 SWAP1 POP JUMP JUMPDEST PUSH32 0x4E487B7100000000000000000000000000000000000000000000000000000000 PUSH1 0x0 MSTORE PUSH1 0x11 PUSH1 0x4 MSTORE PUSH1 0x24 PUSH1 0x0 REVERT JUMPDEST PUSH1 0x0 PUSH2 0x1DFE DUP3 PUSH2 0x104B JUMP JUMPDEST SWAP2 POP PUSH32 0xFFFFFFFFFFFFFFFFFFFFFFFFFFFFFFFFFFFFFFFFFFFFFFFFFFFFFFFFFFFFFFFF DUP3 SUB PUSH2 0x1E30 JUMPI PUSH2 0x1E2F PUSH2 0x1DC4 JUMP JUMPDEST JUMPDEST PUSH1 0x1 DUP3 ADD SWAP1 POP SWAP2 SWAP1 POP JUMP JUMPDEST PUSH1 0x0 PUSH1 0x20 PUSH1 0x1F DUP4 ADD DIV SWAP1 POP SWAP2 SWAP1 POP JUMP JUMPDEST PUSH1 0x0 DUP3 DUP3 SHL SWAP1 POP SWAP3 SWAP2 POP POP JUMP JUMPDEST PUSH1 0x0 PUSH1 0x8 DUP4 MUL PUSH2 0x1E88 PUSH32 0xFFFFFFFFFFFFFFFFFFFFFFFFFFFFFFFFFFFFFFFFFFFFFFFFFFFFFFFFFFFFFFFF DUP3 PUSH2 0x1E4B JUMP JUMPDEST PUSH2 0x1E92 DUP7 DUP4 PUSH2 0x1E4B JUMP JUMPDEST SWAP6 POP DUP1 NOT DUP5 AND SWAP4 POP DUP1 DUP7 AND DUP5 OR SWAP3 POP POP POP SWAP4 SWAP3 POP POP POP JUMP JUMPDEST PUSH1 0x0 DUP2 SWAP1 POP SWAP2 SWAP1 POP JUMP JUMPDEST PUSH1 0x0 PUSH2 0x1ECF PUSH2 0x1ECA PUSH2 0x1EC5 DUP5 PUSH2 0x104B JUMP JUMPDEST PUSH2 0x1EAA JUMP JUMPDEST PUSH2 0x104B JUMP JUMPDEST SWAP1 POP SWAP2 SWAP1 POP JUMP JUMPDEST PUSH1 0x0 DUP2 SWAP1 POP SWAP2 SWAP1 POP JUMP JUMPDEST PUSH2 0x1EE9 DUP4 PUSH2 0x1EB4 JUMP JUMPDEST PUSH2 0x1EFD PUSH2 0x1EF5 DUP3 PUSH2 0x1ED6 JUMP JUMPDEST DUP5 DUP5 SLOAD PUSH2 0x1E58 JUMP JUMPDEST DUP3 SSTORE POP POP POP POP JUMP JUMPDEST PUSH1 0x0 SWAP1 JUMP JUMPDEST PUSH2 0x1F12 PUSH2 0x1F05 JUMP JUMPDEST PUSH2 0x1F1D DUP2 DUP5 DUP5 PUSH2 0x1EE0 JUMP JUMPDEST POP POP POP JUMP JUMPDEST JUMPDEST DUP2 DUP2 LT ISZERO PUSH2 0x1F41 JUMPI PUSH2 0x1F36 PUSH1 0x0 DUP3 PUSH2 0x1F0A JUMP JUMPDEST PUSH1 0x1 DUP2 ADD SWAP1 POP PUSH2 0x1F23 JUMP JUMPDEST POP POP JUMP JUMPDEST PUSH1 0x1F DUP3 GT ISZERO PUSH2 0x1F86 JUMPI PUSH2 0x1F57 DUP2 PUSH2 0x1B65 JUMP JUMPDEST PUSH2 0x1F60 DUP5 PUSH2 0x1E3B JUMP JUMPDEST DUP2 ADD PUSH1 0x20 DUP6 LT ISZERO PUSH2 0x1F6F JUMPI DUP2 SWAP1 POP JUMPDEST PUSH2 0x1F83 PUSH2 0x1F7B DUP6 PUSH2 0x1E3B JUMP JUMPDEST DUP4 ADD DUP3 PUSH2 0x1F22 JUMP JUMPDEST POP POP JUMPDEST POP POP POP JUMP JUMPDEST PUSH1 0x0 DUP3 DUP3 SHR SWAP1 POP SWAP3 SWAP2 POP POP JUMP JUMPDEST PUSH1 0x0 PUSH2 0x1FA9 PUSH1 0x0 NOT DUP5 PUSH1 0x8 MUL PUSH2 0x1F8B JUMP JUMPDEST NOT DUP1 DUP4 AND SWAP2 POP POP SWAP3 SWAP2 POP POP JUMP JUMPDEST PUSH1 0x0 PUSH2 0x1FC2 DUP4 DUP4 PUSH2 0x1F98 JUMP JUMPDEST SWAP2 POP DUP3 PUSH1 0x2 MUL DUP3 OR SWAP1 POP SWAP3 SWAP2 POP POP JUMP JUMPDEST PUSH2 0x1FDB DUP3 PUSH2 0x1222 JUMP JUMPDEST PUSH8 0xFFFFFFFFFFFFFFFF DUP2 GT ISZERO PUSH2 0x1FF4 JUMPI PUSH2 0x1FF3 PUSH2 0x10AE JUMP JUMPDEST JUMPDEST PUSH2 0x1FFE DUP3 SLOAD PUSH2 0x1B34 JUMP JUMPDEST PUSH2 0x2009 DUP3 DUP3 DUP6 PUSH2 0x1F45 JUMP JUMPDEST PUSH1 0x0 PUSH1 0x20 SWAP1 POP PUSH1 0x1F DUP4 GT PUSH1 0x1 DUP2 EQ PUSH2 0x203C JUMPI PUSH1 0x0 DUP5 ISZERO PUSH2 0x202A JUMPI DUP3 DUP8 ADD MLOAD SWAP1 POP JUMPDEST PUSH2 0x2034 DUP6 DUP3 PUSH2 0x1FB6 JUMP JUMPDEST DUP7 SSTORE POP PUSH2 0x209C JUMP JUMPDEST PUSH1 0x1F NOT DUP5 AND PUSH2 0x204A DUP7 PUSH2 0x1B65 JUMP JUMPDEST PUSH1 0x0 JUMPDEST DUP3 DUP2 LT ISZERO PUSH2 0x2072 JUMPI DUP5 DUP10 ADD MLOAD DUP3 SSTORE PUSH1 0x1 DUP3 ADD SWAP2 POP PUSH1 0x20 DUP6 ADD SWAP5 POP PUSH1 0x20 DUP2 ADD SWAP1 POP PUSH2 0x204D JUMP JUMPDEST DUP7 DUP4 LT ISZERO PUSH2 0x208F JUMPI DUP5 DUP10 ADD MLOAD PUSH2 0x208B PUSH1 0x1F DUP10 AND DUP3 PUSH2 0x1F98 JUMP JUMPDEST DUP4 SSTORE POP JUMPDEST PUSH1 0x1 PUSH1 0x2 DUP9 MUL ADD DUP9 SSTORE POP POP POP JUMPDEST POP POP POP POP POP POP JUMP JUMPDEST PUSH32 0x4E487B7100000000000000000000000000000000000000000000000000000000 PUSH1 0x0 MSTORE PUSH1 0x32 PUSH1 0x4 MSTORE PUSH1 0x24 PUSH1 0x0 REVERT JUMPDEST PUSH1 0x0 PUSH1 0x60 DUP3 ADD SWAP1 POP PUSH2 0x20E8 PUSH1 0x0 DUP4 ADD DUP7 PUSH2 0x1055 JUMP JUMPDEST PUSH2 0x20F5 PUSH1 0x20 DUP4 ADD DUP6 PUSH2 0x15D4 JUMP JUMPDEST DUP2 DUP2 SUB PUSH1 0x40 DUP4 ADD MSTORE PUSH2 0x2107 DUP2 DUP5 PUSH2 0x163C JUMP JUMPDEST SWAP1 POP SWAP5 SWAP4 POP POP POP POP JUMP JUMPDEST PUSH32 0x46756E64726169736572206E6F7420666F756E64000000000000000000000000 PUSH1 0x0 DUP3 ADD MSTORE POP JUMP JUMPDEST PUSH1 0x0 PUSH2 0x2147 PUSH1 0x14 DUP4 PUSH2 0x162B JUMP JUMPDEST SWAP2 POP PUSH2 0x2152 DUP3 PUSH2 0x2111 JUMP JUMPDEST PUSH1 0x20 DUP3 ADD SWAP1 POP SWAP2 SWAP1 POP JUMP JUMPDEST PUSH1 0x0 PUSH1 0x20 DUP3 ADD SWAP1 POP DUP2 DUP2 SUB PUSH1 0x0 DUP4 ADD MSTORE PUSH2 0x2176 DUP2 PUSH2 0x213A JUMP JUMPDEST SWAP1 POP SWAP2 SWAP1 POP JUMP JUMPDEST PUSH32 0x46756E64726169736572206973206E6F74206163746976650000000000000000 PUSH1 0x0 DUP3 ADD MSTORE POP JUMP JUMPDEST PUSH1 0x0 PUSH2 0x21B3 PUSH1 0x18 DUP4 PUSH2 0x162B JUMP JUMPDEST SWAP2 POP PUSH2 0x21BE DUP3 PUSH2 0x217D JUMP JUMPDEST PUSH1 0x20 DUP3 ADD SWAP1 POP SWAP2 SWAP1 POP JUMP JUMPDEST PUSH1 0x0 PUSH1 0x20 DUP3 ADD SWAP1 POP DUP2 DUP2 SUB PUSH1 0x0 DUP4 ADD MSTORE PUSH2 0x21E2 DUP2 PUSH2 0x21A6 JUMP JUMPDEST SWAP1 POP SWAP2 SWAP1 POP JUMP JUMPDEST PUSH1 0x0 PUSH2 0x21F4 DUP3 PUSH2 0x104B JUMP JUMPDEST SWAP2 POP PUSH2 0x21FF DUP4 PUSH2 0x104B JUMP JUMPDEST SWAP3 POP DUP3 DUP3 ADD SWAP1 POP DUP1 DUP3 GT ISZERO PUSH2 0x2217 JUMPI PUSH2 0x2216 PUSH2 0x1DC4 JUMP JUMPDEST JUMPDEST SWAP3 SWAP2 POP POP JUMP JUMPDEST PUSH1 0x0 PUSH1 0x60 DUP3 ADD SWAP1 POP PUSH2 0x2232 PUSH1 0x0 DUP4 ADD DUP7 PUSH2 0x1055 JUMP JUMPDEST PUSH2 0x223F PUSH1 0x20 DUP4 ADD DUP6 PUSH2 0x15D4 JUMP JUMPDEST PUSH2 0x224C PUSH1 0x40 DUP4 ADD DUP5 PUSH2 0x1055 JUMP JUMPDEST SWAP5 SWAP4 POP POP POP POP JUMP JUMPDEST PUSH32 0x5573657220616C72656164792065786973747300000000000000000000000000 PUSH1 0x0 DUP3 ADD MSTORE POP JUMP JUMPDEST PUSH1 0x0 PUSH2 0x228A PUSH1 0x13 DUP4 PUSH2 0x162B JUMP JUMPDEST SWAP2 POP PUSH2 0x2295 DUP3 PUSH2 0x2254 JUMP JUMPDEST PUSH1 0x20 DUP3 ADD SWAP1 POP SWAP2 SWAP1 POP JUMP JUMPDEST PUSH1 0x0 PUSH1 0x20 DUP3 ADD SWAP1 POP DUP2 DUP2 SUB PUSH1 0x0 DUP4 ADD MSTORE PUSH2 0x22B9 DUP2 PUSH2 0x227D JUMP JUMPDEST SWAP1 POP SWAP2 SWAP1 POP JUMP JUMPDEST PUSH1 0x0 PUSH1 0x40 DUP3 ADD SWAP1 POP PUSH2 0x22D5 PUSH1 0x0 DUP4 ADD DUP6 PUSH2 0x15D4 JUMP JUMPDEST PUSH2 0x22E2 PUSH1 0x20 DUP4 ADD DUP5 PUSH2 0x161C JUMP JUMPDEST SWAP4 SWAP3 POP POP POP JUMP INVALID LOG2 PUSH5 0x6970667358 0x22 SLT KECCAK256 DUP10 INVALID MULMOD SWAP12 0xBA STOP PUSH27 0x761E7132173908AA00EBE5A75C6D5AC23AB7F02669D22A41C96473 PUSH16 0x6C634300081C00330000000000000000 "},"methodIdentifiers":{"createFundraiser(string,string,uint256,string[],uint256[])":"af321a77","donate(string)":"b5aebc80","fetchFundraiserById(string)":"683c3949","fundraiserCount()":"37cd0940","fundraisers(uint256)":"f38f72fb","registerUser(address,uint8,string)":"be133663","users(address)":"a87430ba"}}}}}