{
  "_format": "hh-sol-artifact-1",
  "contractName": "Edunate",
  "sourceName": "contracts/edunate.sol",
  "abi": [
    {
      "anonymous": false,
      "inputs": [
        {
          "indexed": false,
          "internalType": "uint256",
          "name": "fundraiserId",
          "type": "uint256"
        },
        {
          "indexed": false,
          "internalType": "address",
          "name": "donor",
          "type": "address"
        },
        {
          "indexed": false,
          "internalType": "uint256",
          "name": "amount",
          "type": "uint256"
        }
      ],
      "name": "DonationReceived",
      "type": "event"
    },
    {
      "anonymous": false,
      "inputs": [
        {
          "indexed": false,
          "internalType": "uint256",
          "name": "id",
          "type": "uint256"
        },
        {
          "indexed": false,
          "internalType": "address",
          "name": "institution",
          "type": "address"
        },
        {
          "indexed": false,
          "internalType": "string",
          "name": "title",
          "type": "string"
        }
      ],
      "name": "FundraiserCreated",
      "type": "event"
    },
    {
      "anonymous": false,
      "inputs": [
        {
          "indexed": false,
          "internalType": "uint256",
          "name": "fundraiserId",
          "type": "uint256"
        },
        {
          "indexed": false,
          "internalType": "uint256",
          "name": "milestoneIndex",
          "type": "uint256"
        },
        {
          "indexed": false,
          "internalType": "enum Edunate.MilestoneStatus",
          "name": "status",
          "type": "uint8"
        }
      ],
      "name": "MilestoneValidated",
      "type": "event"
    },
    {
      "anonymous": false,
      "inputs": [
        {
          "indexed": false,
          "internalType": "address",
          "name": "user",
          "type": "address"
        },
        {
          "indexed": false,
          "internalType": "enum Edunate.UserRole",
          "name": "role",
          "type": "uint8"
        }
      ],
      "name": "UserRegistered",
      "type": "event"
    },
    {
      "inputs": [
        {
          "internalType": "string",
          "name": "_id",
          "type": "string"
        },
        {
          "internalType": "string",
          "name": "_title",
          "type": "string"
        },
        {
          "internalType": "uint256",
          "name": "_goalAmount",
          "type": "uint256"
        },
        {
          "internalType": "string[]",
          "name": "_milestoneDescriptions",
          "type": "string[]"
        },
        {
          "internalType": "uint256[]",
          "name": "_milestoneAmounts",
          "type": "uint256[]"
        }
      ],
      "name": "createFundraiser",
      "outputs": [],
      "stateMutability": "nonpayable",
      "type": "function"
    },
    {
      "inputs": [
        {
          "internalType": "string",
          "name": "_id",
          "type": "string"
        }
      ],
      "name": "donate",
      "outputs": [],
      "stateMutability": "payable",
      "type": "function"
    },
    {
      "inputs": [
        {
          "internalType": "string",
          "name": "_id",
          "type": "string"
        }
      ],
      "name": "fetchFundraiserById",
      "outputs": [
        {
          "components": [
            {
              "internalType": "string",
              "name": "id",
              "type": "string"
            },
            {
              "internalType": "address",
              "name": "institution",
              "type": "address"
            },
            {
              "internalType": "string",
              "name": "title",
              "type": "string"
            },
            {
              "internalType": "uint256",
              "name": "goalAmount",
              "type": "uint256"
            },
            {
              "internalType": "uint256",
              "name": "raisedAmount",
              "type": "uint256"
            },
            {
              "components": [
                {
                  "internalType": "string",
                  "name": "description",
                  "type": "string"
                },
                {
                  "internalType": "uint256",
                  "name": "amount",
                  "type": "uint256"
                },
                {
                  "internalType": "enum Edunate.MilestoneStatus",
                  "name": "status",
                  "type": "uint8"
                },
                {
                  "internalType": "string",
                  "name": "proofHash",
                  "type": "string"
                }
              ],
              "internalType": "struct Edunate.Milestone[]",
              "name": "milestones",
              "type": "tuple[]"
            },
            {
              "internalType": "bool",
              "name": "isActive",
              "type": "bool"
            }
          ],
          "internalType": "struct Edunate.Fundraiser",
          "name": "",
          "type": "tuple"
        }
      ],
      "stateMutability": "view",
      "type": "function"
    },
    {
      "inputs": [],
      "name": "fundraiserCount",
      "outputs": [
        {
          "internalType": "uint256",
          "name": "",
          "type": "uint256"
        }
      ],
      "stateMutability": "view",
      "type": "function"
    },
    {
      "inputs": [
        {
          "internalType": "uint256",
          "name": "",
          "type": "uint256"
        }
      ],
      "name": "fundraisers",
      "outputs": [
        {
          "internalType": "string",
          "name": "id",
          "type": "string"
        },
        {
          "internalType": "address",
          "name": "institution",
          "type": "address"
        },
        {
          "internalType": "string",
          "name": "title",
          "type": "string"
        },
        {
          "internalType": "uint256",
          "name": "goalAmount",
          "type": "uint256"
        },
        {
          "internalType": "uint256",
          "name": "raisedAmount",
          "type": "uint256"
        },
        {
          "internalType": "bool",
          "name": "isActive",
          "type": "bool"
        }
      ],
      "stateMutability": "view",
      "type": "function"
    },
    {
      "inputs": [
        {
          "internalType": "address",
          "name": "_userAddress",
          "type": "address"
        },
        {
          "internalType": "enum Edunate.UserRole",
          "name": "_role",
          "type": "uint8"
        },
        {
          "internalType": "string",
          "name": "_name",
          "type": "string"
        }
      ],
      "name": "registerUser",
      "outputs": [],
      "stateMutability": "nonpayable",
      "type": "function"
    },
    {
      "inputs": [
        {
          "internalType": "address",
          "name": "",
          "type": "address"
        }
      ],
      "name": "users",
      "outputs": [
        {
          "internalType": "address",
          "name": "userAddress",
          "type": "address"
        },
        {
          "internalType": "enum Edunate.UserRole",
          "name": "role",
          "type": "uint8"
        },
        {
          "internalType": "string",
          "name": "name",
          "type": "string"
        }
      ],
      "stateMutability": "view",
      "type": "function"
    }
  ],
  "bytecode": "0x6080604052348015600f57600080fd5b5061231f8061001f6000396000f3fe6080604052600436106100705760003560e01c8063af321a771161004e578063af321a771461011c578063b5aebc8014610145578063be13366314610161578063f38f72fb1461018a57610070565b806337cd094014610075578063683c3949146100a0578063a87430ba146100dd575b600080fd5b34801561008157600080fd5b5061008a6101cc565b6040516100979190611064565b60405180910390f35b3480156100ac57600080fd5b506100c760048036038101906100c291906111d9565b6101d2565b6040516100d49190611559565b60405180910390f35b3480156100e957600080fd5b5061010460048036038101906100ff91906115a7565b610637565b60405161011393929190611675565b60405180910390f35b34801561012857600080fd5b50610143600480360381019061013e9190611888565b610716565b005b61015f600480360381019061015a91906111d9565b610abc565b005b34801561016d57600080fd5b5061018860048036038101906101839190611998565b610c5e565b005b34801561019657600080fd5b506101b160048036038101906101ac9190611a07565b610e7d565b6040516101c396959493929190611a43565b60405180910390f35b60025481565b6101da610ff6565b60006003836040516101ec9190611aee565b90815260200160405180910390205490508260405160200161020e9190611aee565b604051602081830303815290604052805190602001206001600080815260200190815260200160002060000160405160200161024a9190611bfd565b60405160208183030381529060405280519060200120146102a0576040517f08c379a000000000000000000000000000000000000000000000000000000000815260040161029790611c60565b60405180910390fd5b600160008281526020019081526020016000206040518060e00160405290816000820180546102ce90611b34565b80601f01602080910402602001604051908101604052809291908181526020018280546102fa90611b34565b80156103475780601f1061031c57610100808354040283529160200191610347565b820191906000526020600020905b81548152906001019060200180831161032a57829003601f168201915b505050505081526020016001820160009054906101000a900473ffffffffffffffffffffffffffffffffffffffff1673ffffffffffffffffffffffffffffffffffffffff1673ffffffffffffffffffffffffffffffffffffffff1681526020016002820180546103b690611b34565b80601f01602080910402602001604051908101604052809291908181526020018280546103e290611b34565b801561042f5780601f106104045761010080835404028352916020019161042f565b820191906000526020600020905b81548152906001019060200180831161041257829003601f168201915b50505050508152602001600382015481526020016004820154815260200160058201805480602002602001604051908101604052809291908181526020016000905b8282101561060c57838290600052602060002090600402016040518060800160405290816000820180546104a490611b34565b80601f01602080910402602001604051908101604052809291908181526020018280546104d090611b34565b801561051d5780601f106104f25761010080835404028352916020019161051d565b820191906000526020600020905b81548152906001019060200180831161050057829003601f168201915b50505050508152602001600182015481526020016002820160009054906101000a900460ff1660028111156105555761055461131d565b5b60028111156105675761056661131d565b5b815260200160038201805461057b90611b34565b80601f01602080910402602001604051908101604052809291908181526020018280546105a790611b34565b80156105f45780601f106105c9576101008083540402835291602001916105f4565b820191906000526020600020905b8154815290600101906020018083116105d757829003601f168201915b50505050508152505081526020019060010190610471565b5050505081526020016006820160009054906101000a900460ff161515151581525050915050919050565b60006020528060005260406000206000915090508060000160009054906101000a900473ffffffffffffffffffffffffffffffffffffffff16908060000160149054906101000a900460ff169080600101805461069390611b34565b80601f01602080910402602001604051908101604052809291908181526020018280546106bf90611b34565b801561070c5780601f106106e15761010080835404028352916020019161070c565b820191906000526020600020905b8154815290600101906020018083116106ef57829003601f168201915b5050505050905083565b6002600381111561072a5761072961131d565b5b6000803373ffffffffffffffffffffffffffffffffffffffff1673ffffffffffffffffffffffffffffffffffffffff16815260200190815260200160002060000160149054906101000a900460ff16600381111561078b5761078a61131d565b5b146107cb576040517f08c379a00000000000000000000000000000000000000000000000000000000081526004016107c290611ccc565b60405180910390fd5b805182511461080f576040517f08c379a000000000000000000000000000000000000000000000000000000000815260040161080690611d38565b60405180910390fd5b60006003866040516108219190611aee565b90815260200160405180910390205414610870576040517f08c379a000000000000000000000000000000000000000000000000000000000815260040161086790611da4565b60405180910390fd5b60006002600081548092919061088590611df3565b9190505590506000600160008381526020019081526020016000209050868160000190816108b39190611fd2565b50338160010160006101000a81548173ffffffffffffffffffffffffffffffffffffffff021916908373ffffffffffffffffffffffffffffffffffffffff160217905550858160020190816109089190611fd2565b5084816003018190555060018160060160006101000a81548160ff021916908315150217905550816003886040516109409190611aee565b90815260200160405180910390208190555060005b8451811015610a77578160050160405180608001604052808784815181106109805761097f6120a4565b5b602002602001015181526020018684815181106109a05761099f6120a4565b5b60200260200101518152602001600060028111156109c1576109c061131d565b5b81526020016040518060200160405280600081525081525090806001815401808255809150506001900390600052602060002090600402016000909190919091506000820151816000019081610a179190611fd2565b506020820151816001015560408201518160020160006101000a81548160ff02191690836002811115610a4d57610a4c61131d565b5b02179055506060820151816003019081610a679190611fd2565b5050508080600101915050610955565b507fbfba4bf8fd78312c37bccacb8f7e01081365e7bf5ea2b2c61ea924a3ac425d6e823388604051610aab939291906120d3565b60405180910390a150505050505050565b6000600382604051610ace9190611aee565b90815260200160405180910390205490506000811180610b5c57506000600254118015610b5b575081604051602001610b079190611aee565b6040516020818303038152906040528051906020012060016000808152602001908152602001600020600001604051602001610b439190611bfd565b60405160208183030381529060405280519060200120145b5b610b9b576040517f08c379a0000000000000000000000000000000000000000000000000000000008152600401610b929061215d565b60405180910390fd5b60006001600083815260200190815260200160002090508060060160009054906101000a900460ff16610c03576040517f08c379a0000000000000000000000000000000000000000000000000000000008152600401610bfa906121c9565b60405180910390fd5b34816004016000828254610c1791906121e9565b925050819055507f0b5b4c52969ff7329ecf7ee536409fda87812b15a8622bc6e8cdeab3aee14a26823334604051610c519392919061221d565b60405180910390a1505050565b600073ffffffffffffffffffffffffffffffffffffffff166000808573ffffffffffffffffffffffffffffffffffffffff1673ffffffffffffffffffffffffffffffffffffffff16815260200190815260200160002060000160009054906101000a900473ffffffffffffffffffffffffffffffffffffffff1673ffffffffffffffffffffffffffffffffffffffff1614610d2e576040517f08c379a0000000000000000000000000000000000000000000000000000000008152600401610d25906122a0565b60405180910390fd5b60405180606001604052808473ffffffffffffffffffffffffffffffffffffffff168152602001836003811115610d6857610d6761131d565b5b8152602001828152506000808573ffffffffffffffffffffffffffffffffffffffff1673ffffffffffffffffffffffffffffffffffffffff16815260200190815260200160002060008201518160000160006101000a81548173ffffffffffffffffffffffffffffffffffffffff021916908373ffffffffffffffffffffffffffffffffffffffff16021790555060208201518160000160146101000a81548160ff02191690836003811115610e2157610e2061131d565b5b02179055506040820151816001019081610e3b9190611fd2565b509050507f8e18574f8a7333e6a87112742a55853a643e2f0550f4e1a3a2c3f1bb2994441d8383604051610e709291906122c0565b60405180910390a1505050565b6001602052806000526040600020600091509050806000018054610ea090611b34565b80601f0160208091040260200160405190810160405280929190818152602001828054610ecc90611b34565b8015610f195780601f10610eee57610100808354040283529160200191610f19565b820191906000526020600020905b815481529060010190602001808311610efc57829003601f168201915b5050505050908060010160009054906101000a900473ffffffffffffffffffffffffffffffffffffffff1690806002018054610f5490611b34565b80601f0160208091040260200160405190810160405280929190818152602001828054610f8090611b34565b8015610fcd5780601f10610fa257610100808354040283529160200191610fcd565b820191906000526020600020905b815481529060010190602001808311610fb057829003601f168201915b5050505050908060030154908060040154908060060160009054906101000a900460ff16905086565b6040518060e0016040528060608152602001600073ffffffffffffffffffffffffffffffffffffffff168152602001606081526020016000815260200160008152602001606081526020016000151581525090565b6000819050919050565b61105e8161104b565b82525050565b60006020820190506110796000830184611055565b92915050565b6000604051905090565b600080fd5b600080fd5b600080fd5b600080fd5b6000601f19601f8301169050919050565b7f4e487b7100000000000000000000000000000000000000000000000000000000600052604160045260246000fd5b6110e68261109d565b810181811067ffffffffffffffff82111715611105576111046110ae565b5b80604052505050565b600061111861107f565b905061112482826110dd565b919050565b600067ffffffffffffffff821115611144576111436110ae565b5b61114d8261109d565b9050602081019050919050565b82818337600083830152505050565b600061117c61117784611129565b61110e565b90508281526020810184848401111561119857611197611098565b5b6111a384828561115a565b509392505050565b600082601f8301126111c0576111bf611093565b5b81356111d0848260208601611169565b91505092915050565b6000602082840312156111ef576111ee611089565b5b600082013567ffffffffffffffff81111561120d5761120c61108e565b5b611219848285016111ab565b91505092915050565b600081519050919050565b600082825260208201905092915050565b60005b8381101561125c578082015181840152602081019050611241565b60008484015250505050565b600061127382611222565b61127d818561122d565b935061128d81856020860161123e565b6112968161109d565b840191505092915050565b600073ffffffffffffffffffffffffffffffffffffffff82169050919050565b60006112cc826112a1565b9050919050565b6112dc816112c1565b82525050565b6112eb8161104b565b82525050565b600081519050919050565b600082825260208201905092915050565b6000819050602082019050919050565b7f4e487b7100000000000000000000000000000000000000000000000000000000600052602160045260246000fd5b6003811061135d5761135c61131d565b5b50565b600081905061136e8261134c565b919050565b600061137e82611360565b9050919050565b61138e81611373565b82525050565b600060808301600083015184820360008601526113b18282611268565b91505060208301516113c660208601826112e2565b5060408301516113d96040860182611385565b50606083015184820360608601526113f18282611268565b9150508091505092915050565b600061140a8383611394565b905092915050565b6000602082019050919050565b600061142a826112f1565b61143481856112fc565b9350836020820285016114468561130d565b8060005b85811015611482578484038952815161146385826113fe565b945061146e83611412565b925060208a0199505060018101905061144a565b50829750879550505050505092915050565b60008115159050919050565b6114a981611494565b82525050565b600060e08301600083015184820360008601526114cc8282611268565b91505060208301516114e160208601826112d3565b50604083015184820360408601526114f98282611268565b915050606083015161150e60608601826112e2565b50608083015161152160808601826112e2565b5060a083015184820360a0860152611539828261141f565b91505060c083015161154e60c08601826114a0565b508091505092915050565b6000602082019050818103600083015261157381846114af565b905092915050565b611584816112c1565b811461158f57600080fd5b50565b6000813590506115a18161157b565b92915050565b6000602082840312156115bd576115bc611089565b5b60006115cb84828501611592565b91505092915050565b6115dd816112c1565b82525050565b600481106115f4576115f361131d565b5b50565b6000819050611605826115e3565b919050565b6000611615826115f7565b9050919050565b6116258161160a565b82525050565b600082825260208201905092915050565b600061164782611222565b611651818561162b565b935061166181856020860161123e565b61166a8161109d565b840191505092915050565b600060608201905061168a60008301866115d4565b611697602083018561161c565b81810360408301526116a9818461163c565b9050949350505050565b6116bc8161104b565b81146116c757600080fd5b50565b6000813590506116d9816116b3565b92915050565b600067ffffffffffffffff8211156116fa576116f96110ae565b5b602082029050602081019050919050565b600080fd5b600061172361171e846116df565b61110e565b905080838252602082019050602084028301858111156117465761174561170b565b5b835b8181101561178d57803567ffffffffffffffff81111561176b5761176a611093565b5b80860161177889826111ab565b85526020850194505050602081019050611748565b5050509392505050565b600082601f8301126117ac576117ab611093565b5b81356117bc848260208601611710565b91505092915050565b600067ffffffffffffffff8211156117e0576117df6110ae565b5b602082029050602081019050919050565b60006118046117ff846117c5565b61110e565b905080838252602082019050602084028301858111156118275761182661170b565b5b835b81811015611850578061183c88826116ca565b845260208401935050602081019050611829565b5050509392505050565b600082601f83011261186f5761186e611093565b5b813561187f8482602086016117f1565b91505092915050565b600080600080600060a086880312156118a4576118a3611089565b5b600086013567ffffffffffffffff8111156118c2576118c161108e565b5b6118ce888289016111ab565b955050602086013567ffffffffffffffff8111156118ef576118ee61108e565b5b6118fb888289016111ab565b945050604061190c888289016116ca565b935050606086013567ffffffffffffffff81111561192d5761192c61108e565b5b61193988828901611797565b925050608086013567ffffffffffffffff81111561195a5761195961108e565b5b6119668882890161185a565b9150509295509295909350565b6004811061198057600080fd5b50565b60008135905061199281611973565b92915050565b6000806000606084860312156119b1576119b0611089565b5b60006119bf86828701611592565b93505060206119d086828701611983565b925050604084013567ffffffffffffffff8111156119f1576119f061108e565b5b6119fd868287016111ab565b9150509250925092565b600060208284031215611a1d57611a1c611089565b5b6000611a2b848285016116ca565b91505092915050565b611a3d81611494565b82525050565b600060c0820190508181036000830152611a5d818961163c565b9050611a6c60208301886115d4565b8181036040830152611a7e818761163c565b9050611a8d6060830186611055565b611a9a6080830185611055565b611aa760a0830184611a34565b979650505050505050565b600081905092915050565b6000611ac882611222565b611ad28185611ab2565b9350611ae281856020860161123e565b80840191505092915050565b6000611afa8284611abd565b915081905092915050565b7f4e487b7100000000000000000000000000000000000000000000000000000000600052602260045260246000fd5b60006002820490506001821680611b4c57607f821691505b602082108103611b5f57611b5e611b05565b5b50919050565b60008190508160005260206000209050919050565b60008154611b8781611b34565b611b918186611ab2565b94506001821660008114611bac5760018114611bc157611bf4565b60ff1983168652811515820286019350611bf4565b611bca85611b65565b60005b83811015611bec57815481890152600182019150602081019050611bcd565b838801955050505b50505092915050565b6000611c098284611b7a565b915081905092915050565b7f46756e64726169736572204944206d69736d6174636800000000000000000000600082015250565b6000611c4a60168361162b565b9150611c5582611c14565b602082019050919050565b60006020820190508181036000830152611c7981611c3d565b9050919050565b7f4e6f7420616e20696e737469747574696f6e0000000000000000000000000000600082015250565b6000611cb660128361162b565b9150611cc182611c80565b602082019050919050565b60006020820190508181036000830152611ce581611ca9565b9050919050565b7f4d69736d6174636820696e206d696c6573746f6e657320646174610000000000600082015250565b6000611d22601b8361162b565b9150611d2d82611cec565b602082019050919050565b60006020820190508181036000830152611d5181611d15565b9050919050565b7f46756e6472616973657220494420616c72656164792065786973747300000000600082015250565b6000611d8e601c8361162b565b9150611d9982611d58565b602082019050919050565b60006020820190508181036000830152611dbd81611d81565b9050919050565b7f4e487b7100000000000000000000000000000000000000000000000000000000600052601160045260246000fd5b6000611dfe8261104b565b91507fffffffffffffffffffffffffffffffffffffffffffffffffffffffffffffffff8203611e3057611e2f611dc4565b5b600182019050919050565b60006020601f8301049050919050565b600082821b905092915050565b600060088302611e887fffffffffffffffffffffffffffffffffffffffffffffffffffffffffffffffff82611e4b565b611e928683611e4b565b95508019841693508086168417925050509392505050565b6000819050919050565b6000611ecf611eca611ec58461104b565b611eaa565b61104b565b9050919050565b6000819050919050565b611ee983611eb4565b611efd611ef582611ed6565b848454611e58565b825550505050565b600090565b611f12611f05565b611f1d818484611ee0565b505050565b5b81811015611f4157611f36600082611f0a565b600181019050611f23565b5050565b601f821115611f8657611f5781611b65565b611f6084611e3b565b81016020851015611f6f578190505b611f83611f7b85611e3b565b830182611f22565b50505b505050565b600082821c905092915050565b6000611fa960001984600802611f8b565b1980831691505092915050565b6000611fc28383611f98565b9150826002028217905092915050565b611fdb82611222565b67ffffffffffffffff811115611ff457611ff36110ae565b5b611ffe8254611b34565b612009828285611f45565b600060209050601f83116001811461203c576000841561202a578287015190505b6120348582611fb6565b86555061209c565b601f19841661204a86611b65565b60005b828110156120725784890151825560018201915060208501945060208101905061204d565b8683101561208f578489015161208b601f891682611f98565b8355505b6001600288020188555050505b505050505050565b7f4e487b7100000000000000000000000000000000000000000000000000000000600052603260045260246000fd5b60006060820190506120e86000830186611055565b6120f560208301856115d4565b8181036040830152612107818461163c565b9050949350505050565b7f46756e64726169736572206e6f7420666f756e64000000000000000000000000600082015250565b600061214760148361162b565b915061215282612111565b602082019050919050565b600060208201905081810360008301526121768161213a565b9050919050565b7f46756e64726169736572206973206e6f74206163746976650000000000000000600082015250565b60006121b360188361162b565b91506121be8261217d565b602082019050919050565b600060208201905081810360008301526121e2816121a6565b9050919050565b60006121f48261104b565b91506121ff8361104b565b925082820190508082111561221757612216611dc4565b5b92915050565b60006060820190506122326000830186611055565b61223f60208301856115d4565b61224c6040830184611055565b949350505050565b7f5573657220616c72656164792065786973747300000000000000000000000000600082015250565b600061228a60138361162b565b915061229582612254565b602082019050919050565b600060208201905081810360008301526122b98161227d565b9050919050565b60006040820190506122d560008301856115d4565b6122e2602083018461161c565b939250505056fea264697066735822122089fe099bba007a761e7132173908aa00ebe5a75c6d5ac23ab7f02669d22a41c964736f6c634300081c0033",
  "linkReferences": {},
  "deployedLinkReferences": {}
}