{
  "_format": "hh-sol-artifact-1",
  "contractName": "Edunate",
  "sourceName": "contracts/edunate.sol",
  "abi": [
    {
      "anonymous": false,
      "inputs": [
        {
          "indexed": false,
          "internalType": "uint256",
          "name": "fundraiserId",
          "type": "uint256"
        },
        {
          "indexed": false,
          "internalType": "address",
          "name": "donor",
          "type": "address"
        },
        {
          "indexed": false,
          "internalType": "uint256",
          "name": "amount",
          "type": "uint256"
        }
      ],
      "name": "DonationReceived",
      "type": "event"
    },
    {
      "anonymous": false,
      "inputs": [
        {
          "indexed": false,
          "internalType": "uint256",
          "name": "id",
          "type": "uint256"
        },
        {
          "indexed": false,
          "internalType": "address",
          "name": "institution",
          "type": "address"
        },
        {
          "indexed": false,
          "internalType": "string",
          "name": "title",
          "type": "string"
        }
      ],
      "name": "FundraiserCreated",
      "type": "event"
    },
    {
      "anonymous": false,
      "inputs": [
        {
          "indexed": false,
          "internalType": "uint256",
          "name": "fundraiserId",
          "type": "uint256"
        },
        {
          "indexed": false,
          "internalType": "uint256",
          "name": "milestoneIndex",
          "type": "uint256"
        },
        {
          "indexed": false,
          "internalType": "enum Edunate.MilestoneStatus",
          "name": "status",
          "type": "uint8"
        }
      ],
      "name": "MilestoneValidated",
      "type": "event"
    },
    {
      "anonymous": false,
      "inputs": [
        {
          "indexed": false,
          "internalType": "address",
          "name": "user",
          "type": "address"
        },
        {
          "indexed": false,
          "internalType": "enum Edunate.UserRole",
          "name": "role",
          "type": "uint8"
        }
      ],
      "name": "UserRegistered",
      "type": "event"
    },
    {
      "inputs": [
        {
          "internalType": "string",
          "name": "_title",
          "type": "string"
        },
        {
          "internalType": "uint256",
          "name": "_goalAmount",
          "type": "uint256"
        },
        {
          "internalType": "string[]",
          "name": "_milestoneDescriptions",
          "type": "string[]"
        },
        {
          "internalType": "uint256[]",
          "name": "_milestoneAmounts",
          "type": "uint256[]"
        }
      ],
      "name": "createFundraiser",
      "outputs": [],
      "stateMutability": "nonpayable",
      "type": "function"
    },
    {
      "inputs": [
        {
          "internalType": "uint256",
          "name": "_fundraiserId",
          "type": "uint256"
        }
      ],
      "name": "donate",
      "outputs": [],
      "stateMutability": "payable",
      "type": "function"
    },
    {
      "inputs": [],
      "name": "fundraiserCount",
      "outputs": [
        {
          "internalType": "uint256",
          "name": "",
          "type": "uint256"
        }
      ],
      "stateMutability": "view",
      "type": "function"
    },
    {
      "inputs": [
        {
          "internalType": "uint256",
          "name": "",
          "type": "uint256"
        }
      ],
      "name": "fundraisers",
      "outputs": [
        {
          "internalType": "uint256",
          "name": "id",
          "type": "uint256"
        },
        {
          "internalType": "address",
          "name": "institution",
          "type": "address"
        },
        {
          "internalType": "string",
          "name": "title",
          "type": "string"
        },
        {
          "internalType": "uint256",
          "name": "goalAmount",
          "type": "uint256"
        },
        {
          "internalType": "uint256",
          "name": "raisedAmount",
          "type": "uint256"
        },
        {
          "internalType": "bool",
          "name": "isActive",
          "type": "bool"
        }
      ],
      "stateMutability": "view",
      "type": "function"
    },
    {
      "inputs": [
        {
          "internalType": "address",
          "name": "_userAddress",
          "type": "address"
        },
        {
          "internalType": "enum Edunate.UserRole",
          "name": "_role",
          "type": "uint8"
        },
        {
          "internalType": "string",
          "name": "_name",
          "type": "string"
        }
      ],
      "name": "registerUser",
      "outputs": [],
      "stateMutability": "nonpayable",
      "type": "function"
    },
    {
      "inputs": [
        {
          "internalType": "address",
          "name": "",
          "type": "address"
        }
      ],
      "name": "users",
      "outputs": [
        {
          "internalType": "address",
          "name": "userAddress",
          "type": "address"
        },
        {
          "internalType": "enum Edunate.UserRole",
          "name": "role",
          "type": "uint8"
        },
        {
          "internalType": "string",
          "name": "name",
          "type": "string"
        },
        {
          "internalType": "bool",
          "name": "isVerified",
          "type": "bool"
        }
      ],
      "stateMutability": "view",
      "type": "function"
    },
    {
      "inputs": [
        {
          "internalType": "address",
          "name": "_userAddress",
          "type": "address"
        }
      ],
      "name": "verifyUser",
      "outputs": [],
      "stateMutability": "nonpayable",
      "type": "function"
    }
  ],
  "bytecode": "0x6080604052348015600f57600080fd5b506119ac8061001f6000396000f3fe6080604052600436106100705760003560e01c8063be1336631161004e578063be13366314610109578063e5dd8b2a14610132578063f14faf6f1461015b578063f38f72fb1461017757610070565b806337cd0940146100755780634d813120146100a0578063a87430ba146100c9575b600080fd5b34801561008157600080fd5b5061008a6101b9565b6040516100979190610b4d565b60405180910390f35b3480156100ac57600080fd5b506100c760048036038101906100c29190610bda565b6101bf565b005b3480156100d557600080fd5b506100f060048036038101906100eb9190610bda565b6102ec565b6040516101009493929190610d38565b60405180910390f35b34801561011557600080fd5b50610130600480360381019061012b9190610ede565b6103de565b005b34801561013e57600080fd5b5061015960048036038101906101549190611122565b610626565b005b610175600480360381019061017091906111dd565b61093e565b005b34801561018357600080fd5b5061019e600480360381019061019991906111dd565b610a43565b6040516101b09695949392919061120a565b60405180910390f35b60025481565b600073ffffffffffffffffffffffffffffffffffffffff166000808373ffffffffffffffffffffffffffffffffffffffff1673ffffffffffffffffffffffffffffffffffffffff16815260200190815260200160002060000160009054906101000a900473ffffffffffffffffffffffffffffffffffffffff1673ffffffffffffffffffffffffffffffffffffffff160361028f576040517f08c379a0000000000000000000000000000000000000000000000000000000008152600401610286906112be565b60405180910390fd5b60016000808373ffffffffffffffffffffffffffffffffffffffff1673ffffffffffffffffffffffffffffffffffffffff16815260200190815260200160002060020160006101000a81548160ff02191690831515021790555050565b60006020528060005260406000206000915090508060000160009054906101000a900473ffffffffffffffffffffffffffffffffffffffff16908060000160149054906101000a900460ff16908060010180546103489061130d565b80601f01602080910402602001604051908101604052809291908181526020018280546103749061130d565b80156103c15780601f10610396576101008083540402835291602001916103c1565b820191906000526020600020905b8154815290600101906020018083116103a457829003601f168201915b5050505050908060020160009054906101000a900460ff16905084565b600073ffffffffffffffffffffffffffffffffffffffff166000808573ffffffffffffffffffffffffffffffffffffffff1673ffffffffffffffffffffffffffffffffffffffff16815260200190815260200160002060000160009054906101000a900473ffffffffffffffffffffffffffffffffffffffff1673ffffffffffffffffffffffffffffffffffffffff16146104ae576040517f08c379a00000000000000000000000000000000000000000000000000000000081526004016104a59061138a565b60405180910390fd5b60405180608001604052808473ffffffffffffffffffffffffffffffffffffffff1681526020018360038111156104e8576104e7610c16565b5b8152602001828152602001600015158152506000808573ffffffffffffffffffffffffffffffffffffffff1673ffffffffffffffffffffffffffffffffffffffff16815260200190815260200160002060008201518160000160006101000a81548173ffffffffffffffffffffffffffffffffffffffff021916908373ffffffffffffffffffffffffffffffffffffffff16021790555060208201518160000160146101000a81548160ff021916908360038111156105aa576105a9610c16565b5b021790555060408201518160010190816105c49190611556565b5060608201518160020160006101000a81548160ff0219169083151502179055509050507f8e18574f8a7333e6a87112742a55853a643e2f0550f4e1a3a2c3f1bb2994441d8383604051610619929190611628565b60405180910390a1505050565b6002600381111561063a57610639610c16565b5b6000803373ffffffffffffffffffffffffffffffffffffffff1673ffffffffffffffffffffffffffffffffffffffff16815260200190815260200160002060000160149054906101000a900460ff16600381111561069b5761069a610c16565b5b146106db576040517f08c379a00000000000000000000000000000000000000000000000000000000081526004016106d29061169d565b60405180910390fd5b805182511461071f576040517f08c379a000000000000000000000000000000000000000000000000000000000815260040161071690611709565b60405180910390fd5b60006002600081548092919061073490611758565b9190505590506000600160008381526020019081526020016000209050818160000181905550338160010160006101000a81548173ffffffffffffffffffffffffffffffffffffffff021916908373ffffffffffffffffffffffffffffffffffffffff160217905550858160020190816107ae9190611556565b5084816003018190555060018160060160006101000a81548160ff02191690831515021790555060005b84518110156108fa57816005016040518060800160405280878481518110610803576108026117a0565b5b60200260200101518152602001868481518110610823576108226117a0565b5b602002602001015181526020016000600281111561084457610843610c16565b5b8152602001604051806020016040528060008152508152509080600181540180825580915050600190039060005260206000209060040201600090919091909150600082015181600001908161089a9190611556565b506020820151816001015560408201518160020160006101000a81548160ff021916908360028111156108d0576108cf610c16565b5b021790555060608201518160030190816108ea9190611556565b50505080806001019150506107d8565b507fbfba4bf8fd78312c37bccacb8f7e01081365e7bf5ea2b2c61ea924a3ac425d6e82338860405161092e939291906117cf565b60405180910390a1505050505050565b60006001600083815260200190815260200160002090508060060160009054906101000a900460ff166109a6576040517f08c379a000000000000000000000000000000000000000000000000000000000815260040161099d90611859565b60405180910390fd5b600034116109e9576040517f08c379a00000000000000000000000000000000000000000000000000000000081526004016109e0906118eb565b60405180910390fd5b348160040160008282546109fd919061190b565b925050819055507f0b5b4c52969ff7329ecf7ee536409fda87812b15a8622bc6e8cdeab3aee14a26823334604051610a379392919061193f565b60405180910390a15050565b60016020528060005260406000206000915090508060000154908060010160009054906101000a900473ffffffffffffffffffffffffffffffffffffffff1690806002018054610a929061130d565b80601f0160208091040260200160405190810160405280929190818152602001828054610abe9061130d565b8015610b0b5780601f10610ae057610100808354040283529160200191610b0b565b820191906000526020600020905b815481529060010190602001808311610aee57829003601f168201915b5050505050908060030154908060040154908060060160009054906101000a900460ff16905086565b6000819050919050565b610b4781610b34565b82525050565b6000602082019050610b626000830184610b3e565b92915050565b6000604051905090565b600080fd5b600080fd5b600073ffffffffffffffffffffffffffffffffffffffff82169050919050565b6000610ba782610b7c565b9050919050565b610bb781610b9c565b8114610bc257600080fd5b50565b600081359050610bd481610bae565b92915050565b600060208284031215610bf057610bef610b72565b5b6000610bfe84828501610bc5565b91505092915050565b610c1081610b9c565b82525050565b7f4e487b7100000000000000000000000000000000000000000000000000000000600052602160045260246000fd5b60048110610c5657610c55610c16565b5b50565b6000819050610c6782610c45565b919050565b6000610c7782610c59565b9050919050565b610c8781610c6c565b82525050565b600081519050919050565b600082825260208201905092915050565b60005b83811015610cc7578082015181840152602081019050610cac565b60008484015250505050565b6000601f19601f8301169050919050565b6000610cef82610c8d565b610cf98185610c98565b9350610d09818560208601610ca9565b610d1281610cd3565b840191505092915050565b60008115159050919050565b610d3281610d1d565b82525050565b6000608082019050610d4d6000830187610c07565b610d5a6020830186610c7e565b8181036040830152610d6c8185610ce4565b9050610d7b6060830184610d29565b95945050505050565b60048110610d9157600080fd5b50565b600081359050610da381610d84565b92915050565b600080fd5b600080fd5b7f4e487b7100000000000000000000000000000000000000000000000000000000600052604160045260246000fd5b610deb82610cd3565b810181811067ffffffffffffffff82111715610e0a57610e09610db3565b5b80604052505050565b6000610e1d610b68565b9050610e298282610de2565b919050565b600067ffffffffffffffff821115610e4957610e48610db3565b5b610e5282610cd3565b9050602081019050919050565b82818337600083830152505050565b6000610e81610e7c84610e2e565b610e13565b905082815260208101848484011115610e9d57610e9c610dae565b5b610ea8848285610e5f565b509392505050565b600082601f830112610ec557610ec4610da9565b5b8135610ed5848260208601610e6e565b91505092915050565b600080600060608486031215610ef757610ef6610b72565b5b6000610f0586828701610bc5565b9350506020610f1686828701610d94565b925050604084013567ffffffffffffffff811115610f3757610f36610b77565b5b610f4386828701610eb0565b9150509250925092565b610f5681610b34565b8114610f6157600080fd5b50565b600081359050610f7381610f4d565b92915050565b600067ffffffffffffffff821115610f9457610f93610db3565b5b602082029050602081019050919050565b600080fd5b6000610fbd610fb884610f79565b610e13565b90508083825260208201905060208402830185811115610fe057610fdf610fa5565b5b835b8181101561102757803567ffffffffffffffff81111561100557611004610da9565b5b8086016110128982610eb0565b85526020850194505050602081019050610fe2565b5050509392505050565b600082601f83011261104657611045610da9565b5b8135611056848260208601610faa565b91505092915050565b600067ffffffffffffffff82111561107a57611079610db3565b5b602082029050602081019050919050565b600061109e6110998461105f565b610e13565b905080838252602082019050602084028301858111156110c1576110c0610fa5565b5b835b818110156110ea57806110d68882610f64565b8452602084019350506020810190506110c3565b5050509392505050565b600082601f83011261110957611108610da9565b5b813561111984826020860161108b565b91505092915050565b6000806000806080858703121561113c5761113b610b72565b5b600085013567ffffffffffffffff81111561115a57611159610b77565b5b61116687828801610eb0565b945050602061117787828801610f64565b935050604085013567ffffffffffffffff81111561119857611197610b77565b5b6111a487828801611031565b925050606085013567ffffffffffffffff8111156111c5576111c4610b77565b5b6111d1878288016110f4565b91505092959194509250565b6000602082840312156111f3576111f2610b72565b5b600061120184828501610f64565b91505092915050565b600060c08201905061121f6000830189610b3e565b61122c6020830188610c07565b818103604083015261123e8187610ce4565b905061124d6060830186610b3e565b61125a6080830185610b3e565b61126760a0830184610d29565b979650505050505050565b7f5573657220646f6573206e6f7420657869737400000000000000000000000000600082015250565b60006112a8601383610c98565b91506112b382611272565b602082019050919050565b600060208201905081810360008301526112d78161129b565b9050919050565b7f4e487b7100000000000000000000000000000000000000000000000000000000600052602260045260246000fd5b6000600282049050600182168061132557607f821691505b602082108103611338576113376112de565b5b50919050565b7f5573657220616c72656164792065786973747300000000000000000000000000600082015250565b6000611374601383610c98565b915061137f8261133e565b602082019050919050565b600060208201905081810360008301526113a381611367565b9050919050565b60008190508160005260206000209050919050565b60006020601f8301049050919050565b600082821b905092915050565b60006008830261140c7fffffffffffffffffffffffffffffffffffffffffffffffffffffffffffffffff826113cf565b61141686836113cf565b95508019841693508086168417925050509392505050565b6000819050919050565b600061145361144e61144984610b34565b61142e565b610b34565b9050919050565b6000819050919050565b61146d83611438565b6114816114798261145a565b8484546113dc565b825550505050565b600090565b611496611489565b6114a1818484611464565b505050565b5b818110156114c5576114ba60008261148e565b6001810190506114a7565b5050565b601f82111561150a576114db816113aa565b6114e4846113bf565b810160208510156114f3578190505b6115076114ff856113bf565b8301826114a6565b50505b505050565b600082821c905092915050565b600061152d6000198460080261150f565b1980831691505092915050565b6000611546838361151c565b9150826002028217905092915050565b61155f82610c8d565b67ffffffffffffffff81111561157857611577610db3565b5b611582825461130d565b61158d8282856114c9565b600060209050601f8311600181146115c057600084156115ae578287015190505b6115b8858261153a565b865550611620565b601f1984166115ce866113aa565b60005b828110156115f6578489015182556001820191506020850194506020810190506115d1565b86831015611613578489015161160f601f89168261151c565b8355505b6001600288020188555050505b505050505050565b600060408201905061163d6000830185610c07565b61164a6020830184610c7e565b9392505050565b7f4e6f7420616e20696e737469747574696f6e0000000000000000000000000000600082015250565b6000611687601283610c98565b915061169282611651565b602082019050919050565b600060208201905081810360008301526116b68161167a565b9050919050565b7f4d69736d6174636820696e206d696c6573746f6e657320646174610000000000600082015250565b60006116f3601b83610c98565b91506116fe826116bd565b602082019050919050565b60006020820190508181036000830152611722816116e6565b9050919050565b7f4e487b7100000000000000000000000000000000000000000000000000000000600052601160045260246000fd5b600061176382610b34565b91507fffffffffffffffffffffffffffffffffffffffffffffffffffffffffffffffff820361179557611794611729565b5b600182019050919050565b7f4e487b7100000000000000000000000000000000000000000000000000000000600052603260045260246000fd5b60006060820190506117e46000830186610b3e565b6117f16020830185610c07565b81810360408301526118038184610ce4565b9050949350505050565b7f46756e64726169736572206973206e6f74206163746976650000000000000000600082015250565b6000611843601883610c98565b915061184e8261180d565b602082019050919050565b6000602082019050818103600083015261187281611836565b9050919050565b7f446f6e6174696f6e206d7573742062652067726561746572207468616e207a6560008201527f726f000000000000000000000000000000000000000000000000000000000000602082015250565b60006118d5602283610c98565b91506118e082611879565b604082019050919050565b60006020820190508181036000830152611904816118c8565b9050919050565b600061191682610b34565b915061192183610b34565b925082820190508082111561193957611938611729565b5b92915050565b60006060820190506119546000830186610b3e565b6119616020830185610c07565b61196e6040830184610b3e565b94935050505056fea2646970667358221220baab2aa5919eaa97811eb2211639fe544fcdba60216a866cc82a4bb94e6110b464736f6c634300081c0033",
  "linkReferences": {},
  "deployedLinkReferences": {}
}