{
  "_format": "hh-sol-artifact-1",
  "contractName": "Edunate",
  "sourceName": "contracts/edunate.sol",
  "abi": [
    {
      "anonymous": false,
      "inputs": [
        {
          "indexed": false,
          "internalType": "uint256",
          "name": "fundraiserId",
          "type": "uint256"
        },
        {
          "indexed": false,
          "internalType": "address",
          "name": "donor",
          "type": "address"
        },
        {
          "indexed": false,
          "internalType": "uint256",
          "name": "amount",
          "type": "uint256"
        }
      ],
      "name": "DonationReceived",
      "type": "event"
    },
    {
      "anonymous": false,
      "inputs": [
        {
          "indexed": false,
          "internalType": "uint256",
          "name": "id",
          "type": "uint256"
        },
        {
          "indexed": false,
          "internalType": "address",
          "name": "institution",
          "type": "address"
        },
        {
          "indexed": false,
          "internalType": "string",
          "name": "title",
          "type": "string"
        }
      ],
      "name": "FundraiserCreated",
      "type": "event"
    },
    {
      "anonymous": false,
      "inputs": [
        {
          "indexed": false,
          "internalType": "uint256",
          "name": "fundraiserId",
          "type": "uint256"
        },
        {
          "indexed": false,
          "internalType": "uint256",
          "name": "milestoneIndex",
          "type": "uint256"
        },
        {
          "indexed": false,
          "internalType": "enum Edunate.MilestoneStatus",
          "name": "status",
          "type": "uint8"
        }
      ],
      "name": "MilestoneValidated",
      "type": "event"
    },
    {
      "anonymous": false,
      "inputs": [
        {
          "indexed": false,
          "internalType": "address",
          "name": "user",
          "type": "address"
        },
        {
          "indexed": false,
          "internalType": "enum Edunate.UserRole",
          "name": "role",
          "type": "uint8"
        }
      ],
      "name": "UserRegistered",
      "type": "event"
    },
    {
      "inputs": [
        {
          "internalType": "string",
          "name": "_id",
          "type": "string"
        },
        {
          "internalType": "string",
          "name": "_title",
          "type": "string"
        },
        {
          "internalType": "uint256",
          "name": "_goalAmount",
          "type": "uint256"
        },
        {
          "internalType": "string[]",
          "name": "_milestoneDescriptions",
          "type": "string[]"
        },
        {
          "internalType": "uint256[]",
          "name": "_milestoneAmounts",
          "type": "uint256[]"
        }
      ],
      "name": "createFundraiser",
      "outputs": [],
      "stateMutability": "nonpayable",
      "type": "function"
    },
    {
      "inputs": [
        {
          "internalType": "address payable",
          "name": "addr",
          "type": "address"
        }
      ],
      "name": "donate",
      "outputs": [],
      "stateMutability": "payable",
      "type": "function"
    },
    {
      "inputs": [
        {
          "internalType": "string",
          "name": "_id",
          "type": "string"
        }
      ],
      "name": "fetchFundraiserById",
      "outputs": [
        {
          "components": [
            {
              "internalType": "string",
              "name": "id",
              "type": "string"
            },
            {
              "internalType": "address",
              "name": "institution",
              "type": "address"
            },
            {
              "internalType": "string",
              "name": "title",
              "type": "string"
            },
            {
              "internalType": "uint256",
              "name": "goalAmount",
              "type": "uint256"
            },
            {
              "internalType": "uint256",
              "name": "raisedAmount",
              "type": "uint256"
            },
            {
              "components": [
                {
                  "internalType": "string",
                  "name": "description",
                  "type": "string"
                },
                {
                  "internalType": "uint256",
                  "name": "amount",
                  "type": "uint256"
                },
                {
                  "internalType": "enum Edunate.MilestoneStatus",
                  "name": "status",
                  "type": "uint8"
                },
                {
                  "internalType": "string",
                  "name": "proofHash",
                  "type": "string"
                }
              ],
              "internalType": "struct Edunate.Milestone[]",
              "name": "milestones",
              "type": "tuple[]"
            },
            {
              "internalType": "bool",
              "name": "isActive",
              "type": "bool"
            }
          ],
          "internalType": "struct Edunate.Fundraiser",
          "name": "",
          "type": "tuple"
        }
      ],
      "stateMutability": "view",
      "type": "function"
    },
    {
      "inputs": [],
      "name": "fundraiserCount",
      "outputs": [
        {
          "internalType": "uint256",
          "name": "",
          "type": "uint256"
        }
      ],
      "stateMutability": "view",
      "type": "function"
    },
    {
      "inputs": [
        {
          "internalType": "uint256",
          "name": "",
          "type": "uint256"
        }
      ],
      "name": "fundraisers",
      "outputs": [
        {
          "internalType": "string",
          "name": "id",
          "type": "string"
        },
        {
          "internalType": "address",
          "name": "institution",
          "type": "address"
        },
        {
          "internalType": "string",
          "name": "title",
          "type": "string"
        },
        {
          "internalType": "uint256",
          "name": "goalAmount",
          "type": "uint256"
        },
        {
          "internalType": "uint256",
          "name": "raisedAmount",
          "type": "uint256"
        },
        {
          "internalType": "bool",
          "name": "isActive",
          "type": "bool"
        }
      ],
      "stateMutability": "view",
      "type": "function"
    },
    {
      "inputs": [
        {
          "internalType": "address",
          "name": "_userAddress",
          "type": "address"
        },
        {
          "internalType": "enum Edunate.UserRole",
          "name": "_role",
          "type": "uint8"
        },
        {
          "internalType": "string",
          "name": "_name",
          "type": "string"
        }
      ],
      "name": "registerUser",
      "outputs": [],
      "stateMutability": "nonpayable",
      "type": "function"
    },
    {
      "inputs": [
        {
          "internalType": "address payable",
          "name": "addr",
          "type": "address"
        }
      ],
      "name": "sendMilestonePayment",
      "outputs": [],
      "stateMutability": "payable",
      "type": "function"
    },
    {
      "inputs": [
        {
          "internalType": "address",
          "name": "",
          "type": "address"
        }
      ],
      "name": "users",
      "outputs": [
        {
          "internalType": "address",
          "name": "userAddress",
          "type": "address"
        },
        {
          "internalType": "enum Edunate.UserRole",
          "name": "role",
          "type": "uint8"
        },
        {
          "internalType": "string",
          "name": "name",
          "type": "string"
        }
      ],
      "stateMutability": "view",
      "type": "function"
    }
  ],
  "bytecode": "0x6080604052348015600f57600080fd5b506122778061001f6000396000f3fe60806040526004361061007a5760003560e01c8063a87430ba1161004e578063a87430ba1461011f578063af321a771461015e578063be13366314610187578063f38f72fb146101b05761007a565b8062362a951461007f57806337cd09401461009b578063683c3949146100c6578063a3ed304814610103575b600080fd5b6100996004803603810190610094919061105b565b6101f2565b005b3480156100a757600080fd5b506100b061027f565b6040516100bd91906110a1565b60405180910390f35b3480156100d257600080fd5b506100ed60048036038101906100e89190611202565b610285565b6040516100fa9190611562565b60405180910390f35b61011d6004803603810190610118919061105b565b6106ea565b005b34801561012b57600080fd5b50610146600480360381019061014191906115b0565b610777565b6040516101559392919061167e565b60405180910390f35b34801561016a57600080fd5b5061018560048036038101906101809190611891565b610856565b005b34801561019357600080fd5b506101ae60048036038101906101a991906119a1565b610bfc565b005b3480156101bc57600080fd5b506101d760048036038101906101d29190611a10565b610e1b565b6040516101e996959493929190611a4c565b60405180910390f35b60003411610235576040517f08c379a000000000000000000000000000000000000000000000000000000000815260040161022c90611b2d565b60405180910390fd5b8073ffffffffffffffffffffffffffffffffffffffff166108fc349081150290604051600060405180830381858888f1935050505015801561027b573d6000803e3d6000fd5b5050565b60025481565b61028d610f94565b600060038360405161029f9190611b89565b9081526020016040518091039020549050826040516020016102c19190611b89565b60405160208183030381529060405280519060200120600160008081526020019081526020016000206000016040516020016102fd9190611c98565b6040516020818303038152906040528051906020012014610353576040517f08c379a000000000000000000000000000000000000000000000000000000000815260040161034a90611cfb565b60405180910390fd5b600160008281526020019081526020016000206040518060e001604052908160008201805461038190611bcf565b80601f01602080910402602001604051908101604052809291908181526020018280546103ad90611bcf565b80156103fa5780601f106103cf576101008083540402835291602001916103fa565b820191906000526020600020905b8154815290600101906020018083116103dd57829003601f168201915b505050505081526020016001820160009054906101000a900473ffffffffffffffffffffffffffffffffffffffff1673ffffffffffffffffffffffffffffffffffffffff1673ffffffffffffffffffffffffffffffffffffffff16815260200160028201805461046990611bcf565b80601f016020809104026020016040519081016040528092919081815260200182805461049590611bcf565b80156104e25780601f106104b7576101008083540402835291602001916104e2565b820191906000526020600020905b8154815290600101906020018083116104c557829003601f168201915b50505050508152602001600382015481526020016004820154815260200160058201805480602002602001604051908101604052809291908181526020016000905b828210156106bf578382906000526020600020906004020160405180608001604052908160008201805461055790611bcf565b80601f016020809104026020016040519081016040528092919081815260200182805461058390611bcf565b80156105d05780601f106105a5576101008083540402835291602001916105d0565b820191906000526020600020905b8154815290600101906020018083116105b357829003601f168201915b50505050508152602001600182015481526020016002820160009054906101000a900460ff16600281111561060857610607611326565b5b600281111561061a57610619611326565b5b815260200160038201805461062e90611bcf565b80601f016020809104026020016040519081016040528092919081815260200182805461065a90611bcf565b80156106a75780601f1061067c576101008083540402835291602001916106a7565b820191906000526020600020905b81548152906001019060200180831161068a57829003601f168201915b50505050508152505081526020019060010190610524565b5050505081526020016006820160009054906101000a900460ff161515151581525050915050919050565b6000341161072d576040517f08c379a000000000000000000000000000000000000000000000000000000000815260040161072490611b2d565b60405180910390fd5b8073ffffffffffffffffffffffffffffffffffffffff166108fc349081150290604051600060405180830381858888f19350505050158015610773573d6000803e3d6000fd5b5050565b60006020528060005260406000206000915090508060000160009054906101000a900473ffffffffffffffffffffffffffffffffffffffff16908060000160149054906101000a900460ff16908060010180546107d390611bcf565b80601f01602080910402602001604051908101604052809291908181526020018280546107ff90611bcf565b801561084c5780601f106108215761010080835404028352916020019161084c565b820191906000526020600020905b81548152906001019060200180831161082f57829003601f168201915b5050505050905083565b6002600381111561086a57610869611326565b5b6000803373ffffffffffffffffffffffffffffffffffffffff1673ffffffffffffffffffffffffffffffffffffffff16815260200190815260200160002060000160149054906101000a900460ff1660038111156108cb576108ca611326565b5b1461090b576040517f08c379a000000000000000000000000000000000000000000000000000000000815260040161090290611d67565b60405180910390fd5b805182511461094f576040517f08c379a000000000000000000000000000000000000000000000000000000000815260040161094690611dd3565b60405180910390fd5b60006003866040516109619190611b89565b908152602001604051809103902054146109b0576040517f08c379a00000000000000000000000000000000000000000000000000000000081526004016109a790611e3f565b60405180910390fd5b6000600260008154809291906109c590611e8e565b9190505590506000600160008381526020019081526020016000209050868160000190816109f3919061206d565b50338160010160006101000a81548173ffffffffffffffffffffffffffffffffffffffff021916908373ffffffffffffffffffffffffffffffffffffffff16021790555085816002019081610a48919061206d565b5084816003018190555060018160060160006101000a81548160ff02191690831515021790555081600388604051610a809190611b89565b90815260200160405180910390208190555060005b8451811015610bb757816005016040518060800160405280878481518110610ac057610abf61213f565b5b60200260200101518152602001868481518110610ae057610adf61213f565b5b6020026020010151815260200160006002811115610b0157610b00611326565b5b81526020016040518060200160405280600081525081525090806001815401808255809150506001900390600052602060002090600402016000909190919091506000820151816000019081610b57919061206d565b506020820151816001015560408201518160020160006101000a81548160ff02191690836002811115610b8d57610b8c611326565b5b02179055506060820151816003019081610ba7919061206d565b5050508080600101915050610a95565b507fbfba4bf8fd78312c37bccacb8f7e01081365e7bf5ea2b2c61ea924a3ac425d6e823388604051610beb9392919061216e565b60405180910390a150505050505050565b600073ffffffffffffffffffffffffffffffffffffffff166000808573ffffffffffffffffffffffffffffffffffffffff1673ffffffffffffffffffffffffffffffffffffffff16815260200190815260200160002060000160009054906101000a900473ffffffffffffffffffffffffffffffffffffffff1673ffffffffffffffffffffffffffffffffffffffff1614610ccc576040517f08c379a0000000000000000000000000000000000000000000000000000000008152600401610cc3906121f8565b60405180910390fd5b60405180606001604052808473ffffffffffffffffffffffffffffffffffffffff168152602001836003811115610d0657610d05611326565b5b8152602001828152506000808573ffffffffffffffffffffffffffffffffffffffff1673ffffffffffffffffffffffffffffffffffffffff16815260200190815260200160002060008201518160000160006101000a81548173ffffffffffffffffffffffffffffffffffffffff021916908373ffffffffffffffffffffffffffffffffffffffff16021790555060208201518160000160146101000a81548160ff02191690836003811115610dbf57610dbe611326565b5b02179055506040820151816001019081610dd9919061206d565b509050507f8e18574f8a7333e6a87112742a55853a643e2f0550f4e1a3a2c3f1bb2994441d8383604051610e0e929190612218565b60405180910390a1505050565b6001602052806000526040600020600091509050806000018054610e3e90611bcf565b80601f0160208091040260200160405190810160405280929190818152602001828054610e6a90611bcf565b8015610eb75780601f10610e8c57610100808354040283529160200191610eb7565b820191906000526020600020905b815481529060010190602001808311610e9a57829003601f168201915b5050505050908060010160009054906101000a900473ffffffffffffffffffffffffffffffffffffffff1690806002018054610ef290611bcf565b80601f0160208091040260200160405190810160405280929190818152602001828054610f1e90611bcf565b8015610f6b5780601f10610f4057610100808354040283529160200191610f6b565b820191906000526020600020905b815481529060010190602001808311610f4e57829003601f168201915b5050505050908060030154908060040154908060060160009054906101000a900460ff16905086565b6040518060e0016040528060608152602001600073ffffffffffffffffffffffffffffffffffffffff168152602001606081526020016000815260200160008152602001606081526020016000151581525090565b6000604051905090565b600080fd5b600080fd5b600073ffffffffffffffffffffffffffffffffffffffff82169050919050565b600061102882610ffd565b9050919050565b6110388161101d565b811461104357600080fd5b50565b6000813590506110558161102f565b92915050565b60006020828403121561107157611070610ff3565b5b600061107f84828501611046565b91505092915050565b6000819050919050565b61109b81611088565b82525050565b60006020820190506110b66000830184611092565b92915050565b600080fd5b600080fd5b6000601f19601f8301169050919050565b7f4e487b7100000000000000000000000000000000000000000000000000000000600052604160045260246000fd5b61110f826110c6565b810181811067ffffffffffffffff8211171561112e5761112d6110d7565b5b80604052505050565b6000611141610fe9565b905061114d8282611106565b919050565b600067ffffffffffffffff82111561116d5761116c6110d7565b5b611176826110c6565b9050602081019050919050565b82818337600083830152505050565b60006111a56111a084611152565b611137565b9050828152602081018484840111156111c1576111c06110c1565b5b6111cc848285611183565b509392505050565b600082601f8301126111e9576111e86110bc565b5b81356111f9848260208601611192565b91505092915050565b60006020828403121561121857611217610ff3565b5b600082013567ffffffffffffffff81111561123657611235610ff8565b5b611242848285016111d4565b91505092915050565b600081519050919050565b600082825260208201905092915050565b60005b8381101561128557808201518184015260208101905061126a565b60008484015250505050565b600061129c8261124b565b6112a68185611256565b93506112b6818560208601611267565b6112bf816110c6565b840191505092915050565b60006112d582610ffd565b9050919050565b6112e5816112ca565b82525050565b6112f481611088565b82525050565b600081519050919050565b600082825260208201905092915050565b6000819050602082019050919050565b7f4e487b7100000000000000000000000000000000000000000000000000000000600052602160045260246000fd5b6003811061136657611365611326565b5b50565b600081905061137782611355565b919050565b600061138782611369565b9050919050565b6113978161137c565b82525050565b600060808301600083015184820360008601526113ba8282611291565b91505060208301516113cf60208601826112eb565b5060408301516113e2604086018261138e565b50606083015184820360608601526113fa8282611291565b9150508091505092915050565b6000611413838361139d565b905092915050565b6000602082019050919050565b6000611433826112fa565b61143d8185611305565b93508360208202850161144f85611316565b8060005b8581101561148b578484038952815161146c8582611407565b94506114778361141b565b925060208a01995050600181019050611453565b50829750879550505050505092915050565b60008115159050919050565b6114b28161149d565b82525050565b600060e08301600083015184820360008601526114d58282611291565b91505060208301516114ea60208601826112dc565b50604083015184820360408601526115028282611291565b915050606083015161151760608601826112eb565b50608083015161152a60808601826112eb565b5060a083015184820360a08601526115428282611428565b91505060c083015161155760c08601826114a9565b508091505092915050565b6000602082019050818103600083015261157c81846114b8565b905092915050565b61158d816112ca565b811461159857600080fd5b50565b6000813590506115aa81611584565b92915050565b6000602082840312156115c6576115c5610ff3565b5b60006115d48482850161159b565b91505092915050565b6115e6816112ca565b82525050565b600481106115fd576115fc611326565b5b50565b600081905061160e826115ec565b919050565b600061161e82611600565b9050919050565b61162e81611613565b82525050565b600082825260208201905092915050565b60006116508261124b565b61165a8185611634565b935061166a818560208601611267565b611673816110c6565b840191505092915050565b600060608201905061169360008301866115dd565b6116a06020830185611625565b81810360408301526116b28184611645565b9050949350505050565b6116c581611088565b81146116d057600080fd5b50565b6000813590506116e2816116bc565b92915050565b600067ffffffffffffffff821115611703576117026110d7565b5b602082029050602081019050919050565b600080fd5b600061172c611727846116e8565b611137565b9050808382526020820190506020840283018581111561174f5761174e611714565b5b835b8181101561179657803567ffffffffffffffff811115611774576117736110bc565b5b80860161178189826111d4565b85526020850194505050602081019050611751565b5050509392505050565b600082601f8301126117b5576117b46110bc565b5b81356117c5848260208601611719565b91505092915050565b600067ffffffffffffffff8211156117e9576117e86110d7565b5b602082029050602081019050919050565b600061180d611808846117ce565b611137565b905080838252602082019050602084028301858111156118305761182f611714565b5b835b81811015611859578061184588826116d3565b845260208401935050602081019050611832565b5050509392505050565b600082601f830112611878576118776110bc565b5b81356118888482602086016117fa565b91505092915050565b600080600080600060a086880312156118ad576118ac610ff3565b5b600086013567ffffffffffffffff8111156118cb576118ca610ff8565b5b6118d7888289016111d4565b955050602086013567ffffffffffffffff8111156118f8576118f7610ff8565b5b611904888289016111d4565b9450506040611915888289016116d3565b935050606086013567ffffffffffffffff81111561193657611935610ff8565b5b611942888289016117a0565b925050608086013567ffffffffffffffff81111561196357611962610ff8565b5b61196f88828901611863565b9150509295509295909350565b6004811061198957600080fd5b50565b60008135905061199b8161197c565b92915050565b6000806000606084860312156119ba576119b9610ff3565b5b60006119c88682870161159b565b93505060206119d98682870161198c565b925050604084013567ffffffffffffffff8111156119fa576119f9610ff8565b5b611a06868287016111d4565b9150509250925092565b600060208284031215611a2657611a25610ff3565b5b6000611a34848285016116d3565b91505092915050565b611a468161149d565b82525050565b600060c0820190508181036000830152611a668189611645565b9050611a7560208301886115dd565b8181036040830152611a878187611645565b9050611a966060830186611092565b611aa36080830185611092565b611ab060a0830184611a3d565b979650505050505050565b7f5061796d656e74206d7573742062652067726561746572207468616e207a657260008201527f6f00000000000000000000000000000000000000000000000000000000000000602082015250565b6000611b17602183611634565b9150611b2282611abb565b604082019050919050565b60006020820190508181036000830152611b4681611b0a565b9050919050565b600081905092915050565b6000611b638261124b565b611b6d8185611b4d565b9350611b7d818560208601611267565b80840191505092915050565b6000611b958284611b58565b915081905092915050565b7f4e487b7100000000000000000000000000000000000000000000000000000000600052602260045260246000fd5b60006002820490506001821680611be757607f821691505b602082108103611bfa57611bf9611ba0565b5b50919050565b60008190508160005260206000209050919050565b60008154611c2281611bcf565b611c2c8186611b4d565b94506001821660008114611c475760018114611c5c57611c8f565b60ff1983168652811515820286019350611c8f565b611c6585611c00565b60005b83811015611c8757815481890152600182019150602081019050611c68565b838801955050505b50505092915050565b6000611ca48284611c15565b915081905092915050565b7f46756e64726169736572204944206d69736d6174636800000000000000000000600082015250565b6000611ce5601683611634565b9150611cf082611caf565b602082019050919050565b60006020820190508181036000830152611d1481611cd8565b9050919050565b7f4e6f7420616e20696e737469747574696f6e0000000000000000000000000000600082015250565b6000611d51601283611634565b9150611d5c82611d1b565b602082019050919050565b60006020820190508181036000830152611d8081611d44565b9050919050565b7f4d69736d6174636820696e206d696c6573746f6e657320646174610000000000600082015250565b6000611dbd601b83611634565b9150611dc882611d87565b602082019050919050565b60006020820190508181036000830152611dec81611db0565b9050919050565b7f46756e6472616973657220494420616c72656164792065786973747300000000600082015250565b6000611e29601c83611634565b9150611e3482611df3565b602082019050919050565b60006020820190508181036000830152611e5881611e1c565b9050919050565b7f4e487b7100000000000000000000000000000000000000000000000000000000600052601160045260246000fd5b6000611e9982611088565b91507fffffffffffffffffffffffffffffffffffffffffffffffffffffffffffffffff8203611ecb57611eca611e5f565b5b600182019050919050565b60006020601f8301049050919050565b600082821b905092915050565b600060088302611f237fffffffffffffffffffffffffffffffffffffffffffffffffffffffffffffffff82611ee6565b611f2d8683611ee6565b95508019841693508086168417925050509392505050565b6000819050919050565b6000611f6a611f65611f6084611088565b611f45565b611088565b9050919050565b6000819050919050565b611f8483611f4f565b611f98611f9082611f71565b848454611ef3565b825550505050565b600090565b611fad611fa0565b611fb8818484611f7b565b505050565b5b81811015611fdc57611fd1600082611fa5565b600181019050611fbe565b5050565b601f82111561202157611ff281611c00565b611ffb84611ed6565b8101602085101561200a578190505b61201e61201685611ed6565b830182611fbd565b50505b505050565b600082821c905092915050565b600061204460001984600802612026565b1980831691505092915050565b600061205d8383612033565b9150826002028217905092915050565b6120768261124b565b67ffffffffffffffff81111561208f5761208e6110d7565b5b6120998254611bcf565b6120a4828285611fe0565b600060209050601f8311600181146120d757600084156120c5578287015190505b6120cf8582612051565b865550612137565b601f1984166120e586611c00565b60005b8281101561210d578489015182556001820191506020850194506020810190506120e8565b8683101561212a5784890151612126601f891682612033565b8355505b6001600288020188555050505b505050505050565b7f4e487b7100000000000000000000000000000000000000000000000000000000600052603260045260246000fd5b60006060820190506121836000830186611092565b61219060208301856115dd565b81810360408301526121a28184611645565b9050949350505050565b7f5573657220616c72656164792065786973747300000000000000000000000000600082015250565b60006121e2601383611634565b91506121ed826121ac565b602082019050919050565b60006020820190508181036000830152612211816121d5565b9050919050565b600060408201905061222d60008301856115dd565b61223a6020830184611625565b939250505056fea2646970667358221220934a403ccba6f1fbbb61a91e1deab66cc1321def51c4a188949e1b95222e60c364736f6c634300081c0033",
  "linkReferences": {},
  "deployedLinkReferences": {}
}